{
  "_format": "hh-sol-artifact-1",
  "contractName": "MultiTokenStaking",
  "sourceName": "contracts/MultiTokenStacking.sol",
  "abi": [
    {
      "inputs": [
        {
          "internalType": "address",
          "name": "initialOwner",
          "type": "address"
        }
      ],
      "stateMutability": "nonpayable",
      "type": "constructor"
    },
    {
      "inputs": [
        {
          "internalType": "address",
          "name": "owner",
          "type": "address"
        }
      ],
      "name": "OwnableInvalidOwner",
      "type": "error"
    },
    {
      "inputs": [
        {
          "internalType": "address",
          "name": "account",
          "type": "address"
        }
      ],
      "name": "OwnableUnauthorizedAccount",
      "type": "error"
    },
    {
      "inputs": [],
      "name": "ReentrancyGuardReentrantCall",
      "type": "error"
    },
    {
      "anonymous": false,
      "inputs": [
        {
          "indexed": true,
          "internalType": "address",
          "name": "previousOwner",
          "type": "address"
        },
        {
          "indexed": true,
          "internalType": "address",
          "name": "newOwner",
          "type": "address"
        }
      ],
      "name": "OwnershipTransferred",
      "type": "event"
    },
    {
      "anonymous": false,
      "inputs": [
        {
          "indexed": true,
          "internalType": "address",
          "name": "stakingToken",
          "type": "address"
        },
        {
          "indexed": false,
          "internalType": "uint256",
          "name": "rewardAmount",
          "type": "uint256"
        },
        {
          "indexed": false,
          "internalType": "uint256",
          "name": "duration",
          "type": "uint256"
        },
        {
          "indexed": false,
          "internalType": "uint256",
          "name": "newRewardRate",
          "type": "uint256"
        },
        {
          "indexed": false,
          "internalType": "uint256",
          "name": "periodFinish",
          "type": "uint256"
        }
      ],
      "name": "PoolFunded",
      "type": "event"
    },
    {
      "anonymous": false,
      "inputs": [
        {
          "indexed": true,
          "internalType": "address",
          "name": "stakingToken",
          "type": "address"
        },
        {
          "indexed": true,
          "internalType": "address",
          "name": "user",
          "type": "address"
        },
        {
          "indexed": false,
          "internalType": "uint256",
          "name": "reward",
          "type": "uint256"
        }
      ],
      "name": "RewardPaid",
      "type": "event"
    },
    {
      "anonymous": false,
      "inputs": [
        {
          "indexed": true,
          "internalType": "address",
          "name": "stakingToken",
          "type": "address"
        },
        {
          "indexed": true,
          "internalType": "address",
          "name": "user",
          "type": "address"
        },
        {
          "indexed": false,
          "internalType": "uint256",
          "name": "amount",
          "type": "uint256"
        }
      ],
      "name": "Staked",
      "type": "event"
    },
    {
      "anonymous": false,
      "inputs": [
        {
          "indexed": true,
          "internalType": "address",
          "name": "token",
          "type": "address"
        },
        {
          "indexed": false,
          "internalType": "uint256",
          "name": "amount",
          "type": "uint256"
        }
      ],
      "name": "TokensRescued",
      "type": "event"
    },
    {
      "anonymous": false,
      "inputs": [
        {
          "indexed": true,
          "internalType": "address",
          "name": "stakingToken",
          "type": "address"
        },
        {
          "indexed": true,
          "internalType": "address",
          "name": "user",
          "type": "address"
        },
        {
          "indexed": false,
          "internalType": "uint256",
          "name": "amount",
          "type": "uint256"
        }
      ],
      "name": "Withdrawn",
      "type": "event"
    },
    {
      "inputs": [
        {
          "internalType": "address",
          "name": "stakingToken",
          "type": "address"
        },
        {
          "internalType": "address",
          "name": "account",
          "type": "address"
        }
      ],
      "name": "earned",
      "outputs": [
        {
          "internalType": "uint256",
          "name": "",
          "type": "uint256"
        }
      ],
      "stateMutability": "view",
      "type": "function"
    },
    {
      "inputs": [
        {
          "internalType": "address",
          "name": "stakingToken",
          "type": "address"
        }
      ],
      "name": "exit",
      "outputs": [],
      "stateMutability": "nonpayable",
      "type": "function"
    },
    {
      "inputs": [
        {
          "internalType": "address",
          "name": "stakingToken",
          "type": "address"
        },
        {
          "internalType": "uint256",
          "name": "rewardAmount",
          "type": "uint256"
        },
        {
          "internalType": "uint256",
          "name": "duration",
          "type": "uint256"
        }
      ],
      "name": "fundRewards",
      "outputs": [],
      "stateMutability": "nonpayable",
      "type": "function"
    },
    {
      "inputs": [
        {
          "internalType": "address",
          "name": "stakingToken",
          "type": "address"
        }
      ],
      "name": "getPoolInfo",
      "outputs": [
        {
          "internalType": "bool",
          "name": "exists",
          "type": "bool"
        },
        {
          "internalType": "uint256",
          "name": "rewardRate",
          "type": "uint256"
        },
        {
          "internalType": "uint256",
          "name": "lastUpdateTime",
          "type": "uint256"
        },
        {
          "internalType": "uint256",
          "name": "rewardPerTokenStored",
          "type": "uint256"
        },
        {
          "internalType": "uint256",
          "name": "periodFinish",
          "type": "uint256"
        },
        {
          "internalType": "uint256",
          "name": "totalStaked",
          "type": "uint256"
        }
      ],
      "stateMutability": "view",
      "type": "function"
    },
    {
      "inputs": [
        {
          "internalType": "address",
          "name": "stakingToken",
          "type": "address"
        }
      ],
      "name": "getReward",
      "outputs": [],
      "stateMutability": "nonpayable",
      "type": "function"
    },
    {
      "inputs": [
        {
          "internalType": "address",
          "name": "stakingToken",
          "type": "address"
        }
      ],
      "name": "lastTimeRewardApplicable",
      "outputs": [
        {
          "internalType": "uint256",
          "name": "",
          "type": "uint256"
        }
      ],
      "stateMutability": "view",
      "type": "function"
    },
    {
      "inputs": [],
      "name": "owner",
      "outputs": [
        {
          "internalType": "address",
          "name": "",
          "type": "address"
        }
      ],
      "stateMutability": "view",
      "type": "function"
    },
    {
      "inputs": [
        {
          "internalType": "address",
          "name": "",
          "type": "address"
        }
      ],
      "name": "pools",
      "outputs": [
        {
          "internalType": "bool",
          "name": "exists",
          "type": "bool"
        },
        {
          "internalType": "contract IERC20",
          "name": "stakingToken",
          "type": "address"
        },
        {
          "internalType": "uint256",
          "name": "rewardRate",
          "type": "uint256"
        },
        {
          "internalType": "uint256",
          "name": "lastUpdateTime",
          "type": "uint256"
        },
        {
          "internalType": "uint256",
          "name": "rewardPerTokenStored",
          "type": "uint256"
        },
        {
          "internalType": "uint256",
          "name": "periodFinish",
          "type": "uint256"
        },
        {
          "internalType": "uint256",
          "name": "totalStaked",
          "type": "uint256"
        }
      ],
      "stateMutability": "view",
      "type": "function"
    },
    {
      "inputs": [],
      "name": "renounceOwnership",
      "outputs": [],
      "stateMutability": "nonpayable",
      "type": "function"
    },
    {
      "inputs": [
        {
          "internalType": "address",
          "name": "token",
          "type": "address"
        },
        {
          "internalType": "uint256",
          "name": "amount",
          "type": "uint256"
        }
      ],
      "name": "rescueTokens",
      "outputs": [],
      "stateMutability": "nonpayable",
      "type": "function"
    },
    {
      "inputs": [
        {
          "internalType": "address",
          "name": "stakingToken",
          "type": "address"
        }
      ],
      "name": "rewardPerToken",
      "outputs": [
        {
          "internalType": "uint256",
          "name": "",
          "type": "uint256"
        }
      ],
      "stateMutability": "view",
      "type": "function"
    },
    {
      "inputs": [
        {
          "internalType": "address",
          "name": "stakingToken",
          "type": "address"
        },
        {
          "internalType": "uint256",
          "name": "amount",
          "type": "uint256"
        }
      ],
      "name": "stake",
      "outputs": [],
      "stateMutability": "nonpayable",
      "type": "function"
    },
    {
      "inputs": [
        {
          "internalType": "address",
          "name": "newOwner",
          "type": "address"
        }
      ],
      "name": "transferOwnership",
      "outputs": [],
      "stateMutability": "nonpayable",
      "type": "function"
    },
    {
      "inputs": [
        {
          "internalType": "address",
          "name": "",
          "type": "address"
        },
        {
          "internalType": "address",
          "name": "",
          "type": "address"
        }
      ],
      "name": "userData",
      "outputs": [
        {
          "internalType": "uint256",
          "name": "balance",
          "type": "uint256"
        },
        {
          "internalType": "uint256",
          "name": "rewards",
          "type": "uint256"
        },
        {
          "internalType": "uint256",
          "name": "userRewardPerTokenPaid",
          "type": "uint256"
        }
      ],
      "stateMutability": "view",
      "type": "function"
    },
    {
      "inputs": [
        {
          "internalType": "address",
          "name": "stakingToken",
          "type": "address"
        },
        {
          "internalType": "uint256",
          "name": "amount",
          "type": "uint256"
        }
      ],
      "name": "withdraw",
      "outputs": [],
      "stateMutability": "nonpayable",
      "type": "function"
    }
  ],
  "bytecode": "0x60806040523480156200001157600080fd5b506040516200253c3803806200253c8339818101604052810190620000379190620001fe565b806001600081905550600073ffffffffffffffffffffffffffffffffffffffff168173ffffffffffffffffffffffffffffffffffffffff1603620000b55760006040517f1e4fbdf7000000000000000000000000000000000000000000000000000000008152600401620000ac919062000241565b60405180910390fd5b620000c681620000ce60201b60201c565b50506200025e565b6000600160009054906101000a900473ffffffffffffffffffffffffffffffffffffffff16905081600160006101000a81548173ffffffffffffffffffffffffffffffffffffffff021916908373ffffffffffffffffffffffffffffffffffffffff1602179055508173ffffffffffffffffffffffffffffffffffffffff168173ffffffffffffffffffffffffffffffffffffffff167f8be0079c531659141344cd1fd0a4f28419497f9722a3daafe3b4186f6b6457e060405160405180910390a35050565b600080fd5b600073ffffffffffffffffffffffffffffffffffffffff82169050919050565b6000620001c68262000199565b9050919050565b620001d881620001b9565b8114620001e457600080fd5b50565b600081519050620001f881620001cd565b92915050565b60006020828403121562000217576200021662000194565b5b60006200022784828501620001e7565b91505092915050565b6200023b81620001b9565b82525050565b600060208201905062000258600083018462000230565b92915050565b6122ce806200026e6000396000f3fe608060405234801561001057600080fd5b50600436106100f55760003560e01c8063a4063dbc11610097578063cce3f33c11610066578063cce3f33c1461028f578063f1229777146102ab578063f2fde38b146102db578063f3fef3a3146102f7576100f5565b8063a4063dbc14610205578063adc9772e1461023b578063b42652e914610257578063c00007b014610273576100f5565b8063638634ee116100d3578063638634ee1461017b578063715018a6146101ab578063768e5b27146101b55780638da5cb5b146101e7576100f5565b806306bfa938146100fa578063211dc32d1461012f578063573761981461015f575b600080fd5b610114600480360381019061010f919061190d565b610313565b6040516101269695949392919061196e565b60405180910390f35b610149600480360381019061014491906119cf565b6103a0565b6040516101569190611a0f565b60405180910390f35b61017960048036038101906101749190611a56565b6104c3565b005b6101956004803603810190610190919061190d565b6105da565b6040516101a29190611a0f565b60405180910390f35b6101b361064b565b005b6101cf60048036038101906101ca91906119cf565b61065f565b6040516101de93929190611a96565b60405180910390f35b6101ef610696565b6040516101fc9190611adc565b60405180910390f35b61021f600480360381019061021a919061190d565b6106c0565b6040516102329796959493929190611b56565b60405180910390f35b61025560048036038101906102509190611a56565b61072f565b005b610271600480360381019061026c919061190d565b610a1e565b005b61028d6004803603810190610288919061190d565b610ad5565b005b6102a960048036038101906102a49190611bc5565b610af2565b005b6102c560048036038101906102c0919061190d565b610e8a565b6040516102d29190611a0f565b60405180910390f35b6102f560048036038101906102f0919061190d565b610f6e565b005b610311600480360381019061030c9190611a56565b610ff4565b005b6000806000806000806000600260008973ffffffffffffffffffffffffffffffffffffffff1673ffffffffffffffffffffffffffffffffffffffff16815260200190815260200160002090508060000160009054906101000a900460ff16816001015482600201548360030154846004015485600501549650965096509650965096505091939550919395565b600080600260008573ffffffffffffffffffffffffffffffffffffffff1673ffffffffffffffffffffffffffffffffffffffff16815260200190815260200160002090506000600360008673ffffffffffffffffffffffffffffffffffffffff1673ffffffffffffffffffffffffffffffffffffffff16815260200190815260200160002060008573ffffffffffffffffffffffffffffffffffffffff1673ffffffffffffffffffffffffffffffffffffffff1681526020019081526020016000209050600061046f86610e8a565b90506000670de0b6b3a764000083600201548361048c9190611c47565b846000015461049b9190611c7b565b6104a59190611cec565b90508083600101546104b79190611d1d565b94505050505092915050565b6104cb611013565b8173ffffffffffffffffffffffffffffffffffffffff1663a9059cbb33836040518363ffffffff1660e01b8152600401610506929190611d51565b6020604051808303816000875af1158015610525573d6000803e3d6000fd5b505050506040513d601f19601f820116820180604052508101906105499190611da6565b610588576040517f08c379a000000000000000000000000000000000000000000000000000000000815260040161057f90611e30565b60405180910390fd5b8173ffffffffffffffffffffffffffffffffffffffff167f68f67de89e96b13a3ea058af5fd44cc125efceb528482d539c7b43db2faa066e826040516105ce9190611a0f565b60405180910390a25050565b600080600260008473ffffffffffffffffffffffffffffffffffffffff1673ffffffffffffffffffffffffffffffffffffffff168152602001908152602001600020600401549050600081036106335742915050610646565b8042106106405780610642565b425b9150505b919050565b610653611013565b61065d600061109a565b565b6003602052816000526040600020602052806000526040600020600091509150508060000154908060010154908060020154905083565b6000600160009054906101000a900473ffffffffffffffffffffffffffffffffffffffff16905090565b60026020528060005260406000206000915090508060000160009054906101000a900460ff16908060000160019054906101000a900473ffffffffffffffffffffffffffffffffffffffff16908060010154908060020154908060030154908060040154908060050154905087565b610737611160565b6000811161077a576040517f08c379a000000000000000000000000000000000000000000000000000000000815260040161077190611e9c565b60405180910390fd5b6000600260008473ffffffffffffffffffffffffffffffffffffffff1673ffffffffffffffffffffffffffffffffffffffff16815260200190815260200160002090508060000160009054906101000a900460ff1661080e576040517f08c379a000000000000000000000000000000000000000000000000000000000815260040161080590611f08565b60405180910390fd5b61081883336111a6565b8181600501600082825461082c9190611d1d565b9250508190555081600360008573ffffffffffffffffffffffffffffffffffffffff1673ffffffffffffffffffffffffffffffffffffffff16815260200190815260200160002060003373ffffffffffffffffffffffffffffffffffffffff1673ffffffffffffffffffffffffffffffffffffffff16815260200190815260200160002060000160008282546108c29190611d1d565b925050819055508060000160019054906101000a900473ffffffffffffffffffffffffffffffffffffffff1673ffffffffffffffffffffffffffffffffffffffff166323b872dd3330856040518463ffffffff1660e01b815260040161092a93929190611f28565b6020604051808303816000875af1158015610949573d6000803e3d6000fd5b505050506040513d601f19601f8201168201806040525081019061096d9190611da6565b6109ac576040517f08c379a00000000000000000000000000000000000000000000000000000000081526004016109a390611fab565b60405180910390fd5b3373ffffffffffffffffffffffffffffffffffffffff168373ffffffffffffffffffffffffffffffffffffffff167f5dac0c1b1112564a045ba943c9d50270893e8e826c49be8e7073adc713ab7bd784604051610a099190611a0f565b60405180910390a350610a1a6112e5565b5050565b610a26611160565b6000600360008373ffffffffffffffffffffffffffffffffffffffff1673ffffffffffffffffffffffffffffffffffffffff16815260200190815260200160002060003373ffffffffffffffffffffffffffffffffffffffff1673ffffffffffffffffffffffffffffffffffffffff1681526020019081526020016000206000015490506000811115610abf57610abe8233836112ef565b5b610ac9823361161a565b50610ad26112e5565b50565b610add611160565b610ae7813361161a565b610aef6112e5565b50565b610afa611160565b610b02611013565b60008211610b45576040517f08c379a0000000000000000000000000000000000000000000000000000000008152600401610b3c90612017565b60405180910390fd5b60008111610b88576040517f08c379a0000000000000000000000000000000000000000000000000000000008152600401610b7f90612083565b60405180910390fd5b6000600260008573ffffffffffffffffffffffffffffffffffffffff1673ffffffffffffffffffffffffffffffffffffffff168152602001908152602001600020905060008490508073ffffffffffffffffffffffffffffffffffffffff166323b872dd3330876040518463ffffffff1660e01b8152600401610c0d93929190611f28565b6020604051808303816000875af1158015610c2c573d6000803e3d6000fd5b505050506040513d601f19601f82011682018060405250810190610c509190611da6565b610c8f576040517f08c379a0000000000000000000000000000000000000000000000000000000008152600401610c86906120ef565b60405180910390fd5b60004290508260000160009054906101000a900460ff16610d185760018360000160006101000a81548160ff021916908315150217905550818360000160016101000a81548173ffffffffffffffffffffffffffffffffffffffff021916908373ffffffffffffffffffffffffffffffffffffffff160217905550808360020181905550610d9c565b6000610d23876105da565b9050600084600501541115610d91576000846002015482610d449190611c47565b90508460050154670de0b6b3a7640000866001015483610d649190611c7b565b610d6e9190611c7b565b610d789190611cec565b8560030154610d879190611d1d565b8560030181905550505b808460020181905550505b82600401548110610dc0578385610db39190611cec565b8360010181905550610e0a565b6000818460040154610dd29190611c47565b90506000846001015482610de69190611c7b565b9050858188610df59190611d1d565b610dff9190611cec565b856001018190555050505b8381610e169190611d1d565b83600401819055508573ffffffffffffffffffffffffffffffffffffffff167fae85f8c3a6fb0fcb7aba38950d6419487cbb93ffb8f80aea01f727444e565fb6868686600101548760040154604051610e72949392919061210f565b60405180910390a2505050610e856112e5565b505050565b600080600260008473ffffffffffffffffffffffffffffffffffffffff1673ffffffffffffffffffffffffffffffffffffffff16815260200190815260200160002090508060000160009054906101000a900460ff16610eee576000915050610f69565b6000816005015403610f07578060030154915050610f69565b60008160020154610f17856105da565b610f219190611c47565b90508160050154670de0b6b3a7640000836001015483610f419190611c7b565b610f4b9190611c7b565b610f559190611cec565b8260030154610f649190611d1d565b925050505b919050565b610f76611013565b600073ffffffffffffffffffffffffffffffffffffffff168173ffffffffffffffffffffffffffffffffffffffff1603610fe85760006040517f1e4fbdf7000000000000000000000000000000000000000000000000000000008152600401610fdf9190611adc565b60405180910390fd5b610ff18161109a565b50565b610ffc611160565b6110078233836112ef565b61100f6112e5565b5050565b61101b6118a2565b73ffffffffffffffffffffffffffffffffffffffff16611039610696565b73ffffffffffffffffffffffffffffffffffffffff16146110985761105c6118a2565b6040517f118cdaa700000000000000000000000000000000000000000000000000000000815260040161108f9190611adc565b60405180910390fd5b565b6000600160009054906101000a900473ffffffffffffffffffffffffffffffffffffffff16905081600160006101000a81548173ffffffffffffffffffffffffffffffffffffffff021916908373ffffffffffffffffffffffffffffffffffffffff1602179055508173ffffffffffffffffffffffffffffffffffffffff168173ffffffffffffffffffffffffffffffffffffffff167f8be0079c531659141344cd1fd0a4f28419497f9722a3daafe3b4186f6b6457e060405160405180910390a35050565b60026000540361119c576040517f3ee5aeb500000000000000000000000000000000000000000000000000000000815260040160405180910390fd5b6002600081905550565b6000600260008473ffffffffffffffffffffffffffffffffffffffff1673ffffffffffffffffffffffffffffffffffffffff16815260200190815260200160002090506111f283610e8a565b8160030181905550611203836105da565b8160020181905550600073ffffffffffffffffffffffffffffffffffffffff168273ffffffffffffffffffffffffffffffffffffffff16146112e0576000600360008573ffffffffffffffffffffffffffffffffffffffff1673ffffffffffffffffffffffffffffffffffffffff16815260200190815260200160002060008473ffffffffffffffffffffffffffffffffffffffff1673ffffffffffffffffffffffffffffffffffffffff16815260200190815260200160002090506112c984846103a0565b816001018190555081600301548160020181905550505b505050565b6001600081905550565b60008111611332576040517f08c379a0000000000000000000000000000000000000000000000000000000008152600401611329906121a0565b60405180910390fd5b6000600260008573ffffffffffffffffffffffffffffffffffffffff1673ffffffffffffffffffffffffffffffffffffffff16815260200190815260200160002090508060000160009054906101000a900460ff166113c6576040517f08c379a00000000000000000000000000000000000000000000000000000000081526004016113bd90611f08565b60405180910390fd5b6113d084846111a6565b6000600360008673ffffffffffffffffffffffffffffffffffffffff1673ffffffffffffffffffffffffffffffffffffffff16815260200190815260200160002060008573ffffffffffffffffffffffffffffffffffffffff1673ffffffffffffffffffffffffffffffffffffffff16815260200190815260200160002090508281600001541015611497576040517f08c379a000000000000000000000000000000000000000000000000000000000815260040161148e9061220c565b60405180910390fd5b828160000160008282546114ab9190611c47565b92505081905550828260050160008282546114c69190611c47565b925050819055508160000160019054906101000a900473ffffffffffffffffffffffffffffffffffffffff1673ffffffffffffffffffffffffffffffffffffffff1663a9059cbb85856040518363ffffffff1660e01b815260040161152c929190611d51565b6020604051808303816000875af115801561154b573d6000803e3d6000fd5b505050506040513d601f19601f8201168201806040525081019061156f9190611da6565b6115ae576040517f08c379a00000000000000000000000000000000000000000000000000000000081526004016115a590612278565b60405180910390fd5b8373ffffffffffffffffffffffffffffffffffffffff168573ffffffffffffffffffffffffffffffffffffffff167fd1c19fbcd4551a5edfb66d43d2e337c04837afda3482b42bdf569a8fccdae5fb8560405161160b9190611a0f565b60405180910390a35050505050565b6000600260008473ffffffffffffffffffffffffffffffffffffffff1673ffffffffffffffffffffffffffffffffffffffff16815260200190815260200160002090508060000160009054906101000a900460ff166116ae576040517f08c379a00000000000000000000000000000000000000000000000000000000081526004016116a590611f08565b60405180910390fd5b6116b883836111a6565b6000600360008573ffffffffffffffffffffffffffffffffffffffff1673ffffffffffffffffffffffffffffffffffffffff16815260200190815260200160002060008473ffffffffffffffffffffffffffffffffffffffff1673ffffffffffffffffffffffffffffffffffffffff1681526020019081526020016000209050600081600101549050600081111561189b57600082600101819055508260000160019054906101000a900473ffffffffffffffffffffffffffffffffffffffff1673ffffffffffffffffffffffffffffffffffffffff1663a9059cbb85836040518363ffffffff1660e01b81526004016117b3929190611d51565b6020604051808303816000875af11580156117d2573d6000803e3d6000fd5b505050506040513d601f19601f820116820180604052508101906117f69190611da6565b611835576040517f08c379a000000000000000000000000000000000000000000000000000000000815260040161182c906120ef565b60405180910390fd5b8373ffffffffffffffffffffffffffffffffffffffff168573ffffffffffffffffffffffffffffffffffffffff167f540798df468d7b23d11f156fdb954cb19ad414d150722a7b6d55ba369dea792e836040516118929190611a0f565b60405180910390a35b5050505050565b600033905090565b600080fd5b600073ffffffffffffffffffffffffffffffffffffffff82169050919050565b60006118da826118af565b9050919050565b6118ea816118cf565b81146118f557600080fd5b50565b600081359050611907816118e1565b92915050565b600060208284031215611923576119226118aa565b5b6000611931848285016118f8565b91505092915050565b60008115159050919050565b61194f8161193a565b82525050565b6000819050919050565b61196881611955565b82525050565b600060c0820190506119836000830189611946565b611990602083018861195f565b61199d604083018761195f565b6119aa606083018661195f565b6119b7608083018561195f565b6119c460a083018461195f565b979650505050505050565b600080604083850312156119e6576119e56118aa565b5b60006119f4858286016118f8565b9250506020611a05858286016118f8565b9150509250929050565b6000602082019050611a24600083018461195f565b92915050565b611a3381611955565b8114611a3e57600080fd5b50565b600081359050611a5081611a2a565b92915050565b60008060408385031215611a6d57611a6c6118aa565b5b6000611a7b858286016118f8565b9250506020611a8c85828601611a41565b9150509250929050565b6000606082019050611aab600083018661195f565b611ab8602083018561195f565b611ac5604083018461195f565b949350505050565b611ad6816118cf565b82525050565b6000602082019050611af16000830184611acd565b92915050565b6000819050919050565b6000611b1c611b17611b12846118af565b611af7565b6118af565b9050919050565b6000611b2e82611b01565b9050919050565b6000611b4082611b23565b9050919050565b611b5081611b35565b82525050565b600060e082019050611b6b600083018a611946565b611b786020830189611b47565b611b85604083018861195f565b611b92606083018761195f565b611b9f608083018661195f565b611bac60a083018561195f565b611bb960c083018461195f565b98975050505050505050565b600080600060608486031215611bde57611bdd6118aa565b5b6000611bec868287016118f8565b9350506020611bfd86828701611a41565b9250506040611c0e86828701611a41565b9150509250925092565b7f4e487b7100000000000000000000000000000000000000000000000000000000600052601160045260246000fd5b6000611c5282611955565b9150611c5d83611955565b9250828203905081811115611c7557611c74611c18565b5b92915050565b6000611c8682611955565b9150611c9183611955565b9250828202611c9f81611955565b91508282048414831517611cb657611cb5611c18565b5b5092915050565b7f4e487b7100000000000000000000000000000000000000000000000000000000600052601260045260246000fd5b6000611cf782611955565b9150611d0283611955565b925082611d1257611d11611cbd565b5b828204905092915050565b6000611d2882611955565b9150611d3383611955565b9250828201905080821115611d4b57611d4a611c18565b5b92915050565b6000604082019050611d666000830185611acd565b611d73602083018461195f565b9392505050565b611d838161193a565b8114611d8e57600080fd5b50565b600081519050611da081611d7a565b92915050565b600060208284031215611dbc57611dbb6118aa565b5b6000611dca84828501611d91565b91505092915050565b600082825260208201905092915050565b7f526573637565206661696c656400000000000000000000000000000000000000600082015250565b6000611e1a600d83611dd3565b9150611e2582611de4565b602082019050919050565b60006020820190508181036000830152611e4981611e0d565b9050919050565b7f7374616b65203d20300000000000000000000000000000000000000000000000600082015250565b6000611e86600983611dd3565b9150611e9182611e50565b602082019050919050565b60006020820190508181036000830152611eb581611e79565b9050919050565b7f506f6f6c206e6f742066756e6465640000000000000000000000000000000000600082015250565b6000611ef2600f83611dd3565b9150611efd82611ebc565b602082019050919050565b60006020820190508181036000830152611f2181611ee5565b9050919050565b6000606082019050611f3d6000830186611acd565b611f4a6020830185611acd565b611f57604083018461195f565b949350505050565b7f5374616b65207472616e73666572206661696c65640000000000000000000000600082015250565b6000611f95601583611dd3565b9150611fa082611f5f565b602082019050919050565b60006020820190508181036000830152611fc481611f88565b9050919050565b7f726577617264416d6f756e74203d203000000000000000000000000000000000600082015250565b6000612001601083611dd3565b915061200c82611fcb565b602082019050919050565b6000602082019050818103600083015261203081611ff4565b9050919050565b7f6475726174696f6e203d20300000000000000000000000000000000000000000600082015250565b600061206d600c83611dd3565b915061207882612037565b602082019050919050565b6000602082019050818103600083015261209c81612060565b9050919050565b7f526577617264207472616e73666572206661696c656400000000000000000000600082015250565b60006120d9601683611dd3565b91506120e4826120a3565b602082019050919050565b60006020820190508181036000830152612108816120cc565b9050919050565b6000608082019050612124600083018761195f565b612131602083018661195f565b61213e604083018561195f565b61214b606083018461195f565b95945050505050565b7f7769746864726177203d20300000000000000000000000000000000000000000600082015250565b600061218a600c83611dd3565b915061219582612154565b602082019050919050565b600060208201905081810360008301526121b98161217d565b9050919050565b7f7769746864726177203e2062616c616e63650000000000000000000000000000600082015250565b60006121f6601283611dd3565b9150612201826121c0565b602082019050919050565b60006020820190508181036000830152612225816121e9565b9050919050565b7f5769746864726177207472616e73666572206661696c65640000000000000000600082015250565b6000612262601883611dd3565b915061226d8261222c565b602082019050919050565b6000602082019050818103600083015261229181612255565b905091905056fea2646970667358221220642c4878a90d996bfeb100acea1c4e622f96e8a1ec235201586b3a2a3a1682a464736f6c63430008140033",
  "linkReferences": {},
  "deployedLinkReferences": {}
}