{
  "_format": "hh-sol-artifact-1",
  "contractName": "MultiTokenStaking",
  "sourceName": "contracts/MultiTokenStacking.sol",
  "abi": [
    {
      "inputs": [
        {
          "internalType": "address",
          "name": "initialOwner",
          "type": "address"
        }
      ],
      "stateMutability": "nonpayable",
      "type": "constructor"
    },
    {
      "inputs": [
        {
          "internalType": "address",
          "name": "owner",
          "type": "address"
        }
      ],
      "name": "OwnableInvalidOwner",
      "type": "error"
    },
    {
      "inputs": [
        {
          "internalType": "address",
          "name": "account",
          "type": "address"
        }
      ],
      "name": "OwnableUnauthorizedAccount",
      "type": "error"
    },
    {
      "inputs": [],
      "name": "ReentrancyGuardReentrantCall",
      "type": "error"
    },
    {
      "anonymous": false,
      "inputs": [
        {
          "indexed": true,
          "internalType": "address",
          "name": "previousOwner",
          "type": "address"
        },
        {
          "indexed": true,
          "internalType": "address",
          "name": "newOwner",
          "type": "address"
        }
      ],
      "name": "OwnershipTransferred",
      "type": "event"
    },
    {
      "anonymous": false,
      "inputs": [
        {
          "indexed": true,
          "internalType": "address",
          "name": "stakingToken",
          "type": "address"
        },
        {
          "indexed": false,
          "internalType": "uint256",
          "name": "rewardAmount",
          "type": "uint256"
        },
        {
          "indexed": false,
          "internalType": "uint256",
          "name": "duration",
          "type": "uint256"
        },
        {
          "indexed": false,
          "internalType": "uint256",
          "name": "newRewardRate",
          "type": "uint256"
        },
        {
          "indexed": false,
          "internalType": "uint256",
          "name": "periodFinish",
          "type": "uint256"
        }
      ],
      "name": "PoolFunded",
      "type": "event"
    },
    {
      "anonymous": false,
      "inputs": [
        {
          "indexed": true,
          "internalType": "address",
          "name": "stakingToken",
          "type": "address"
        },
        {
          "indexed": true,
          "internalType": "address",
          "name": "user",
          "type": "address"
        },
        {
          "indexed": false,
          "internalType": "uint256",
          "name": "reward",
          "type": "uint256"
        }
      ],
      "name": "RewardPaid",
      "type": "event"
    },
    {
      "anonymous": false,
      "inputs": [
        {
          "indexed": true,
          "internalType": "address",
          "name": "stakingToken",
          "type": "address"
        },
        {
          "indexed": true,
          "internalType": "address",
          "name": "user",
          "type": "address"
        },
        {
          "indexed": false,
          "internalType": "uint256",
          "name": "amount",
          "type": "uint256"
        }
      ],
      "name": "Staked",
      "type": "event"
    },
    {
      "anonymous": false,
      "inputs": [
        {
          "indexed": true,
          "internalType": "address",
          "name": "token",
          "type": "address"
        },
        {
          "indexed": false,
          "internalType": "bool",
          "name": "allowed",
          "type": "bool"
        }
      ],
      "name": "StakingTokenAllowed",
      "type": "event"
    },
    {
      "anonymous": false,
      "inputs": [
        {
          "indexed": true,
          "internalType": "address",
          "name": "token",
          "type": "address"
        },
        {
          "indexed": false,
          "internalType": "uint256",
          "name": "amount",
          "type": "uint256"
        }
      ],
      "name": "TokensRescued",
      "type": "event"
    },
    {
      "anonymous": false,
      "inputs": [
        {
          "indexed": true,
          "internalType": "address",
          "name": "stakingToken",
          "type": "address"
        },
        {
          "indexed": true,
          "internalType": "address",
          "name": "user",
          "type": "address"
        },
        {
          "indexed": false,
          "internalType": "uint256",
          "name": "amount",
          "type": "uint256"
        }
      ],
      "name": "Withdrawn",
      "type": "event"
    },
    {
      "inputs": [
        {
          "internalType": "address",
          "name": "",
          "type": "address"
        }
      ],
      "name": "allowedStakingTokens",
      "outputs": [
        {
          "internalType": "bool",
          "name": "",
          "type": "bool"
        }
      ],
      "stateMutability": "view",
      "type": "function"
    },
    {
      "inputs": [
        {
          "internalType": "address",
          "name": "stakingToken",
          "type": "address"
        },
        {
          "internalType": "address",
          "name": "account",
          "type": "address"
        }
      ],
      "name": "earned",
      "outputs": [
        {
          "internalType": "uint256",
          "name": "",
          "type": "uint256"
        }
      ],
      "stateMutability": "view",
      "type": "function"
    },
    {
      "inputs": [
        {
          "internalType": "address",
          "name": "stakingToken",
          "type": "address"
        }
      ],
      "name": "exit",
      "outputs": [],
      "stateMutability": "nonpayable",
      "type": "function"
    },
    {
      "inputs": [
        {
          "internalType": "address",
          "name": "stakingToken",
          "type": "address"
        },
        {
          "internalType": "uint256",
          "name": "rewardAmount",
          "type": "uint256"
        },
        {
          "internalType": "uint256",
          "name": "duration",
          "type": "uint256"
        }
      ],
      "name": "fundRewards",
      "outputs": [],
      "stateMutability": "nonpayable",
      "type": "function"
    },
    {
      "inputs": [
        {
          "internalType": "address",
          "name": "stakingToken",
          "type": "address"
        }
      ],
      "name": "getPoolInfo",
      "outputs": [
        {
          "internalType": "bool",
          "name": "exists",
          "type": "bool"
        },
        {
          "internalType": "uint256",
          "name": "rewardRate",
          "type": "uint256"
        },
        {
          "internalType": "uint256",
          "name": "lastUpdateTime",
          "type": "uint256"
        },
        {
          "internalType": "uint256",
          "name": "rewardPerTokenStored",
          "type": "uint256"
        },
        {
          "internalType": "uint256",
          "name": "periodFinish",
          "type": "uint256"
        },
        {
          "internalType": "uint256",
          "name": "totalStaked",
          "type": "uint256"
        }
      ],
      "stateMutability": "view",
      "type": "function"
    },
    {
      "inputs": [
        {
          "internalType": "address",
          "name": "stakingToken",
          "type": "address"
        }
      ],
      "name": "getReward",
      "outputs": [],
      "stateMutability": "nonpayable",
      "type": "function"
    },
    {
      "inputs": [
        {
          "internalType": "address",
          "name": "stakingToken",
          "type": "address"
        }
      ],
      "name": "lastTimeRewardApplicable",
      "outputs": [
        {
          "internalType": "uint256",
          "name": "",
          "type": "uint256"
        }
      ],
      "stateMutability": "view",
      "type": "function"
    },
    {
      "inputs": [],
      "name": "owner",
      "outputs": [
        {
          "internalType": "address",
          "name": "",
          "type": "address"
        }
      ],
      "stateMutability": "view",
      "type": "function"
    },
    {
      "inputs": [
        {
          "internalType": "address",
          "name": "",
          "type": "address"
        }
      ],
      "name": "pools",
      "outputs": [
        {
          "internalType": "bool",
          "name": "exists",
          "type": "bool"
        },
        {
          "internalType": "contract IERC20",
          "name": "stakingToken",
          "type": "address"
        },
        {
          "internalType": "uint256",
          "name": "rewardRate",
          "type": "uint256"
        },
        {
          "internalType": "uint256",
          "name": "lastUpdateTime",
          "type": "uint256"
        },
        {
          "internalType": "uint256",
          "name": "rewardPerTokenStored",
          "type": "uint256"
        },
        {
          "internalType": "uint256",
          "name": "periodFinish",
          "type": "uint256"
        },
        {
          "internalType": "uint256",
          "name": "totalStaked",
          "type": "uint256"
        }
      ],
      "stateMutability": "view",
      "type": "function"
    },
    {
      "inputs": [],
      "name": "renounceOwnership",
      "outputs": [],
      "stateMutability": "nonpayable",
      "type": "function"
    },
    {
      "inputs": [
        {
          "internalType": "address",
          "name": "token",
          "type": "address"
        },
        {
          "internalType": "uint256",
          "name": "amount",
          "type": "uint256"
        }
      ],
      "name": "rescueTokens",
      "outputs": [],
      "stateMutability": "nonpayable",
      "type": "function"
    },
    {
      "inputs": [
        {
          "internalType": "address",
          "name": "stakingToken",
          "type": "address"
        }
      ],
      "name": "rewardPerToken",
      "outputs": [
        {
          "internalType": "uint256",
          "name": "",
          "type": "uint256"
        }
      ],
      "stateMutability": "view",
      "type": "function"
    },
    {
      "inputs": [
        {
          "internalType": "address",
          "name": "token",
          "type": "address"
        },
        {
          "internalType": "bool",
          "name": "allowed",
          "type": "bool"
        }
      ],
      "name": "setAllowedStakingToken",
      "outputs": [],
      "stateMutability": "nonpayable",
      "type": "function"
    },
    {
      "inputs": [
        {
          "internalType": "address",
          "name": "stakingToken",
          "type": "address"
        },
        {
          "internalType": "uint256",
          "name": "amount",
          "type": "uint256"
        }
      ],
      "name": "stake",
      "outputs": [],
      "stateMutability": "nonpayable",
      "type": "function"
    },
    {
      "inputs": [
        {
          "internalType": "address",
          "name": "newOwner",
          "type": "address"
        }
      ],
      "name": "transferOwnership",
      "outputs": [],
      "stateMutability": "nonpayable",
      "type": "function"
    },
    {
      "inputs": [
        {
          "internalType": "address",
          "name": "",
          "type": "address"
        },
        {
          "internalType": "address",
          "name": "",
          "type": "address"
        }
      ],
      "name": "userData",
      "outputs": [
        {
          "internalType": "uint256",
          "name": "balance",
          "type": "uint256"
        },
        {
          "internalType": "uint256",
          "name": "rewards",
          "type": "uint256"
        },
        {
          "internalType": "uint256",
          "name": "userRewardPerTokenPaid",
          "type": "uint256"
        }
      ],
      "stateMutability": "view",
      "type": "function"
    },
    {
      "inputs": [
        {
          "internalType": "address",
          "name": "stakingToken",
          "type": "address"
        },
        {
          "internalType": "uint256",
          "name": "amount",
          "type": "uint256"
        }
      ],
      "name": "withdraw",
      "outputs": [],
      "stateMutability": "nonpayable",
      "type": "function"
    }
  ],
  "bytecode": "0x60806040523480156200001157600080fd5b5060405162002810380380620028108339818101604052810190620000379190620001fe565b806001600081905550600073ffffffffffffffffffffffffffffffffffffffff168173ffffffffffffffffffffffffffffffffffffffff1603620000b55760006040517f1e4fbdf7000000000000000000000000000000000000000000000000000000008152600401620000ac919062000241565b60405180910390fd5b620000c681620000ce60201b60201c565b50506200025e565b6000600160009054906101000a900473ffffffffffffffffffffffffffffffffffffffff16905081600160006101000a81548173ffffffffffffffffffffffffffffffffffffffff021916908373ffffffffffffffffffffffffffffffffffffffff1602179055508173ffffffffffffffffffffffffffffffffffffffff168173ffffffffffffffffffffffffffffffffffffffff167f8be0079c531659141344cd1fd0a4f28419497f9722a3daafe3b4186f6b6457e060405160405180910390a35050565b600080fd5b600073ffffffffffffffffffffffffffffffffffffffff82169050919050565b6000620001c68262000199565b9050919050565b620001d881620001b9565b8114620001e457600080fd5b50565b600081519050620001f881620001cd565b92915050565b60006020828403121562000217576200021662000194565b5b60006200022784828501620001e7565b91505092915050565b6200023b81620001b9565b82525050565b600060208201905062000258600083018462000230565b92915050565b6125a2806200026e6000396000f3fe608060405234801561001057600080fd5b506004361061010b5760003560e01c8063a4063dbc116100a2578063c0d7ff2111610071578063c0d7ff21146102c1578063cce3f33c146102f1578063f12297771461030d578063f2fde38b1461033d578063f3fef3a3146103595761010b565b8063a4063dbc14610237578063adc9772e1461026d578063b42652e914610289578063c00007b0146102a55761010b565b8063638634ee116100de578063638634ee146101ad578063715018a6146101dd578063768e5b27146101e75780638da5cb5b146102195761010b565b806306bfa93814610110578063211dc32d1461014557806339bdd85e146101755780635737619814610191575b600080fd5b61012a60048036038101906101259190611b05565b610375565b60405161013c96959493929190611b66565b60405180910390f35b61015f600480360381019061015a9190611bc7565b610402565b60405161016c9190611c07565b60405180910390f35b61018f600480360381019061018a9190611c4e565b610525565b005b6101ab60048036038101906101a69190611cba565b6105d6565b005b6101c760048036038101906101c29190611b05565b61073f565b6040516101d49190611c07565b60405180910390f35b6101e56107a2565b005b61020160048036038101906101fc9190611bc7565b6107b6565b60405161021093929190611cfa565b60405180910390f35b6102216107ed565b60405161022e9190611d40565b60405180910390f35b610251600480360381019061024c9190611b05565b610817565b6040516102649796959493929190611dba565b60405180910390f35b61028760048036038101906102829190611cba565b610886565b005b6102a3600480360381019061029e9190611b05565b610c01565b005b6102bf60048036038101906102ba9190611b05565b610cb8565b005b6102db60048036038101906102d69190611b05565b610cd5565b6040516102e89190611e29565b60405180910390f35b61030b60048036038101906103069190611e44565b610cf5565b005b61032760048036038101906103229190611b05565b6110a2565b6040516103349190611c07565b60405180910390f35b61035760048036038101906103529190611b05565b611166565b005b610373600480360381019061036e9190611cba565b6111ec565b005b6000806000806000806000600260008973ffffffffffffffffffffffffffffffffffffffff1673ffffffffffffffffffffffffffffffffffffffff16815260200190815260200160002090508060000160009054906101000a900460ff16816001015482600201548360030154846004015485600501549650965096509650965096505091939550919395565b600080600260008573ffffffffffffffffffffffffffffffffffffffff1673ffffffffffffffffffffffffffffffffffffffff16815260200190815260200160002090506000600360008673ffffffffffffffffffffffffffffffffffffffff1673ffffffffffffffffffffffffffffffffffffffff16815260200190815260200160002060008573ffffffffffffffffffffffffffffffffffffffff1673ffffffffffffffffffffffffffffffffffffffff168152602001908152602001600020905060006104d1866110a2565b90506000670de0b6b3a76400008360020154836104ee9190611ec6565b84600001546104fd9190611efa565b6105079190611f6b565b90508083600101546105199190611f9c565b94505050505092915050565b61052d61120b565b80600460008473ffffffffffffffffffffffffffffffffffffffff1673ffffffffffffffffffffffffffffffffffffffff16815260200190815260200160002060006101000a81548160ff0219169083151502179055508173ffffffffffffffffffffffffffffffffffffffff167fa80de445fed67d6a9037ee1d2a86e412bb14ed3c73df053c024c7a20793a43a4826040516105ca9190611e29565b60405180910390a25050565b6105de61120b565b600260008373ffffffffffffffffffffffffffffffffffffffff1673ffffffffffffffffffffffffffffffffffffffff16815260200190815260200160002060000160009054906101000a900460ff161561066e576040517f08c379a00000000000000000000000000000000000000000000000000000000081526004016106659061202d565b60405180910390fd5b8173ffffffffffffffffffffffffffffffffffffffff1663a9059cbb33836040518363ffffffff1660e01b81526004016106a992919061204d565b6020604051808303816000875af11580156106c8573d6000803e3d6000fd5b505050506040513d601f19601f820116820180604052508101906106ec919061208b565b508173ffffffffffffffffffffffffffffffffffffffff167f68f67de89e96b13a3ea058af5fd44cc125efceb528482d539c7b43db2faa066e826040516107339190611c07565b60405180910390a25050565b600080600260008473ffffffffffffffffffffffffffffffffffffffff1673ffffffffffffffffffffffffffffffffffffffff16815260200190815260200160002090508060040154421061079857806004015461079a565b425b915050919050565b6107aa61120b565b6107b46000611292565b565b6003602052816000526040600020602052806000526040600020600091509150508060000154908060010154908060020154905083565b6000600160009054906101000a900473ffffffffffffffffffffffffffffffffffffffff16905090565b60026020528060005260406000206000915090508060000160009054906101000a900460ff16908060000160019054906101000a900473ffffffffffffffffffffffffffffffffffffffff16908060010154908060020154908060030154908060040154908060050154905087565b61088e611358565b600081116108d1576040517f08c379a00000000000000000000000000000000000000000000000000000000081526004016108c890612104565b60405180910390fd5b600460008373ffffffffffffffffffffffffffffffffffffffff1673ffffffffffffffffffffffffffffffffffffffff16815260200190815260200160002060009054906101000a900460ff1661095d576040517f08c379a000000000000000000000000000000000000000000000000000000000815260040161095490612170565b60405180910390fd5b6000600260008473ffffffffffffffffffffffffffffffffffffffff1673ffffffffffffffffffffffffffffffffffffffff16815260200190815260200160002090508060000160009054906101000a900460ff166109f1576040517f08c379a00000000000000000000000000000000000000000000000000000000081526004016109e8906121dc565b60405180910390fd5b6109fb833361139e565b81816005016000828254610a0f9190611f9c565b9250508190555081600360008573ffffffffffffffffffffffffffffffffffffffff1673ffffffffffffffffffffffffffffffffffffffff16815260200190815260200160002060003373ffffffffffffffffffffffffffffffffffffffff1673ffffffffffffffffffffffffffffffffffffffff1681526020019081526020016000206000016000828254610aa59190611f9c565b925050819055508060000160019054906101000a900473ffffffffffffffffffffffffffffffffffffffff1673ffffffffffffffffffffffffffffffffffffffff166323b872dd3330856040518463ffffffff1660e01b8152600401610b0d939291906121fc565b6020604051808303816000875af1158015610b2c573d6000803e3d6000fd5b505050506040513d601f19601f82011682018060405250810190610b50919061208b565b610b8f576040517f08c379a0000000000000000000000000000000000000000000000000000000008152600401610b869061227f565b60405180910390fd5b3373ffffffffffffffffffffffffffffffffffffffff168373ffffffffffffffffffffffffffffffffffffffff167f5dac0c1b1112564a045ba943c9d50270893e8e826c49be8e7073adc713ab7bd784604051610bec9190611c07565b60405180910390a350610bfd6114dd565b5050565b610c09611358565b6000600360008373ffffffffffffffffffffffffffffffffffffffff1673ffffffffffffffffffffffffffffffffffffffff16815260200190815260200160002060003373ffffffffffffffffffffffffffffffffffffffff1673ffffffffffffffffffffffffffffffffffffffff1681526020019081526020016000206000015490506000811115610ca257610ca18233836114e7565b5b610cac8233611812565b50610cb56114dd565b50565b610cc0611358565b610cca8133611812565b610cd26114dd565b50565b60046020528060005260406000206000915054906101000a900460ff1681565b610cfd611358565b610d0561120b565b600460008473ffffffffffffffffffffffffffffffffffffffff1673ffffffffffffffffffffffffffffffffffffffff16815260200190815260200160002060009054906101000a900460ff16610d91576040517f08c379a0000000000000000000000000000000000000000000000000000000008152600401610d8890612170565b60405180910390fd5b60008211610dd4576040517f08c379a0000000000000000000000000000000000000000000000000000000008152600401610dcb906122eb565b60405180910390fd5b60008111610e17576040517f08c379a0000000000000000000000000000000000000000000000000000000008152600401610e0e90612357565b60405180910390fd5b6000600260008573ffffffffffffffffffffffffffffffffffffffff1673ffffffffffffffffffffffffffffffffffffffff168152602001908152602001600020905060008490508073ffffffffffffffffffffffffffffffffffffffff166323b872dd3330876040518463ffffffff1660e01b8152600401610e9c939291906121fc565b6020604051808303816000875af1158015610ebb573d6000803e3d6000fd5b505050506040513d601f19601f82011682018060405250810190610edf919061208b565b610f1e576040517f08c379a0000000000000000000000000000000000000000000000000000000008152600401610f15906123c3565b60405180910390fd5b8160000160009054906101000a900460ff16610f955760018260000160006101000a81548160ff021916908315150217905550808260000160016101000a81548173ffffffffffffffffffffffffffffffffffffffff021916908373ffffffffffffffffffffffffffffffffffffffff1602179055505b610fa085600061139e565b600042905082600401548110610fc9578385610fbc9190611f6b565b8360010181905550611019565b6000818460040154610fdb9190611ec6565b90506000846001015482610fef9190611efa565b905060008188610fff9190611f9c565b9050868161100d9190611f6b565b86600101819055505050505b808360020181905550838161102e9190611f9c565b83600401819055508573ffffffffffffffffffffffffffffffffffffffff167fae85f8c3a6fb0fcb7aba38950d6419487cbb93ffb8f80aea01f727444e565fb686868660010154876004015460405161108a94939291906123e3565b60405180910390a250505061109d6114dd565b505050565b600080600260008473ffffffffffffffffffffffffffffffffffffffff1673ffffffffffffffffffffffffffffffffffffffff168152602001908152602001600020905060008160050154036110ff578060030154915050611161565b6000816002015461110f8561073f565b6111199190611ec6565b90508160050154670de0b6b3a76400008360010154836111399190611efa565b6111439190611efa565b61114d9190611f6b565b826003015461115c9190611f9c565b925050505b919050565b61116e61120b565b600073ffffffffffffffffffffffffffffffffffffffff168173ffffffffffffffffffffffffffffffffffffffff16036111e05760006040517f1e4fbdf70000000000000000000000000000000000000000000000000000000081526004016111d79190611d40565b60405180910390fd5b6111e981611292565b50565b6111f4611358565b6111ff8233836114e7565b6112076114dd565b5050565b611213611a9a565b73ffffffffffffffffffffffffffffffffffffffff166112316107ed565b73ffffffffffffffffffffffffffffffffffffffff161461129057611254611a9a565b6040517f118cdaa70000000000000000000000000000000000000000000000000000000081526004016112879190611d40565b60405180910390fd5b565b6000600160009054906101000a900473ffffffffffffffffffffffffffffffffffffffff16905081600160006101000a81548173ffffffffffffffffffffffffffffffffffffffff021916908373ffffffffffffffffffffffffffffffffffffffff1602179055508173ffffffffffffffffffffffffffffffffffffffff168173ffffffffffffffffffffffffffffffffffffffff167f8be0079c531659141344cd1fd0a4f28419497f9722a3daafe3b4186f6b6457e060405160405180910390a35050565b600260005403611394576040517f3ee5aeb500000000000000000000000000000000000000000000000000000000815260040160405180910390fd5b6002600081905550565b6000600260008473ffffffffffffffffffffffffffffffffffffffff1673ffffffffffffffffffffffffffffffffffffffff16815260200190815260200160002090506113ea836110a2565b81600301819055506113fb8361073f565b8160020181905550600073ffffffffffffffffffffffffffffffffffffffff168273ffffffffffffffffffffffffffffffffffffffff16146114d8576000600360008573ffffffffffffffffffffffffffffffffffffffff1673ffffffffffffffffffffffffffffffffffffffff16815260200190815260200160002060008473ffffffffffffffffffffffffffffffffffffffff1673ffffffffffffffffffffffffffffffffffffffff16815260200190815260200160002090506114c18484610402565b816001018190555081600301548160020181905550505b505050565b6001600081905550565b6000811161152a576040517f08c379a000000000000000000000000000000000000000000000000000000000815260040161152190612474565b60405180910390fd5b6000600260008573ffffffffffffffffffffffffffffffffffffffff1673ffffffffffffffffffffffffffffffffffffffff16815260200190815260200160002090508060000160009054906101000a900460ff166115be576040517f08c379a00000000000000000000000000000000000000000000000000000000081526004016115b5906121dc565b60405180910390fd5b6115c8848461139e565b6000600360008673ffffffffffffffffffffffffffffffffffffffff1673ffffffffffffffffffffffffffffffffffffffff16815260200190815260200160002060008573ffffffffffffffffffffffffffffffffffffffff1673ffffffffffffffffffffffffffffffffffffffff1681526020019081526020016000209050828160000154101561168f576040517f08c379a0000000000000000000000000000000000000000000000000000000008152600401611686906124e0565b60405180910390fd5b828160000160008282546116a39190611ec6565b92505081905550828260050160008282546116be9190611ec6565b925050819055508160000160019054906101000a900473ffffffffffffffffffffffffffffffffffffffff1673ffffffffffffffffffffffffffffffffffffffff1663a9059cbb85856040518363ffffffff1660e01b815260040161172492919061204d565b6020604051808303816000875af1158015611743573d6000803e3d6000fd5b505050506040513d601f19601f82011682018060405250810190611767919061208b565b6117a6576040517f08c379a000000000000000000000000000000000000000000000000000000000815260040161179d9061254c565b60405180910390fd5b8373ffffffffffffffffffffffffffffffffffffffff168573ffffffffffffffffffffffffffffffffffffffff167fd1c19fbcd4551a5edfb66d43d2e337c04837afda3482b42bdf569a8fccdae5fb856040516118039190611c07565b60405180910390a35050505050565b6000600260008473ffffffffffffffffffffffffffffffffffffffff1673ffffffffffffffffffffffffffffffffffffffff16815260200190815260200160002090508060000160009054906101000a900460ff166118a6576040517f08c379a000000000000000000000000000000000000000000000000000000000815260040161189d906121dc565b60405180910390fd5b6118b0838361139e565b6000600360008573ffffffffffffffffffffffffffffffffffffffff1673ffffffffffffffffffffffffffffffffffffffff16815260200190815260200160002060008473ffffffffffffffffffffffffffffffffffffffff1673ffffffffffffffffffffffffffffffffffffffff16815260200190815260200160002090506000816001015490506000811115611a9357600082600101819055508260000160019054906101000a900473ffffffffffffffffffffffffffffffffffffffff1673ffffffffffffffffffffffffffffffffffffffff1663a9059cbb85836040518363ffffffff1660e01b81526004016119ab92919061204d565b6020604051808303816000875af11580156119ca573d6000803e3d6000fd5b505050506040513d601f19601f820116820180604052508101906119ee919061208b565b611a2d576040517f08c379a0000000000000000000000000000000000000000000000000000000008152600401611a24906123c3565b60405180910390fd5b8373ffffffffffffffffffffffffffffffffffffffff168573ffffffffffffffffffffffffffffffffffffffff167f540798df468d7b23d11f156fdb954cb19ad414d150722a7b6d55ba369dea792e83604051611a8a9190611c07565b60405180910390a35b5050505050565b600033905090565b600080fd5b600073ffffffffffffffffffffffffffffffffffffffff82169050919050565b6000611ad282611aa7565b9050919050565b611ae281611ac7565b8114611aed57600080fd5b50565b600081359050611aff81611ad9565b92915050565b600060208284031215611b1b57611b1a611aa2565b5b6000611b2984828501611af0565b91505092915050565b60008115159050919050565b611b4781611b32565b82525050565b6000819050919050565b611b6081611b4d565b82525050565b600060c082019050611b7b6000830189611b3e565b611b886020830188611b57565b611b956040830187611b57565b611ba26060830186611b57565b611baf6080830185611b57565b611bbc60a0830184611b57565b979650505050505050565b60008060408385031215611bde57611bdd611aa2565b5b6000611bec85828601611af0565b9250506020611bfd85828601611af0565b9150509250929050565b6000602082019050611c1c6000830184611b57565b92915050565b611c2b81611b32565b8114611c3657600080fd5b50565b600081359050611c4881611c22565b92915050565b60008060408385031215611c6557611c64611aa2565b5b6000611c7385828601611af0565b9250506020611c8485828601611c39565b9150509250929050565b611c9781611b4d565b8114611ca257600080fd5b50565b600081359050611cb481611c8e565b92915050565b60008060408385031215611cd157611cd0611aa2565b5b6000611cdf85828601611af0565b9250506020611cf085828601611ca5565b9150509250929050565b6000606082019050611d0f6000830186611b57565b611d1c6020830185611b57565b611d296040830184611b57565b949350505050565b611d3a81611ac7565b82525050565b6000602082019050611d556000830184611d31565b92915050565b6000819050919050565b6000611d80611d7b611d7684611aa7565b611d5b565b611aa7565b9050919050565b6000611d9282611d65565b9050919050565b6000611da482611d87565b9050919050565b611db481611d99565b82525050565b600060e082019050611dcf600083018a611b3e565b611ddc6020830189611dab565b611de96040830188611b57565b611df66060830187611b57565b611e036080830186611b57565b611e1060a0830185611b57565b611e1d60c0830184611b57565b98975050505050505050565b6000602082019050611e3e6000830184611b3e565b92915050565b600080600060608486031215611e5d57611e5c611aa2565b5b6000611e6b86828701611af0565b9350506020611e7c86828701611ca5565b9250506040611e8d86828701611ca5565b9150509250925092565b7f4e487b7100000000000000000000000000000000000000000000000000000000600052601160045260246000fd5b6000611ed182611b4d565b9150611edc83611b4d565b9250828203905081811115611ef457611ef3611e97565b5b92915050565b6000611f0582611b4d565b9150611f1083611b4d565b9250828202611f1e81611b4d565b91508282048414831517611f3557611f34611e97565b5b5092915050565b7f4e487b7100000000000000000000000000000000000000000000000000000000600052601260045260246000fd5b6000611f7682611b4d565b9150611f8183611b4d565b925082611f9157611f90611f3c565b5b828204905092915050565b6000611fa782611b4d565b9150611fb283611b4d565b9250828201905080821115611fca57611fc9611e97565b5b92915050565b600082825260208201905092915050565b7f43616e6e6f7420726573637565207374616b696e6720746f6b656e0000000000600082015250565b6000612017601b83611fd0565b915061202282611fe1565b602082019050919050565b600060208201905081810360008301526120468161200a565b9050919050565b60006040820190506120626000830185611d31565b61206f6020830184611b57565b9392505050565b60008151905061208581611c22565b92915050565b6000602082840312156120a1576120a0611aa2565b5b60006120af84828501612076565b91505092915050565b7f7374616b65203d20300000000000000000000000000000000000000000000000600082015250565b60006120ee600983611fd0565b91506120f9826120b8565b602082019050919050565b6000602082019050818103600083015261211d816120e1565b9050919050565b7f546f6b656e206e6f7420616c6c6f776564000000000000000000000000000000600082015250565b600061215a601183611fd0565b915061216582612124565b602082019050919050565b600060208201905081810360008301526121898161214d565b9050919050565b7f506f6f6c206e6f742066756e6465640000000000000000000000000000000000600082015250565b60006121c6600f83611fd0565b91506121d182612190565b602082019050919050565b600060208201905081810360008301526121f5816121b9565b9050919050565b60006060820190506122116000830186611d31565b61221e6020830185611d31565b61222b6040830184611b57565b949350505050565b7f5374616b65207472616e73666572206661696c65640000000000000000000000600082015250565b6000612269601583611fd0565b915061227482612233565b602082019050919050565b600060208201905081810360008301526122988161225c565b9050919050565b7f726577617264416d6f756e74203d203000000000000000000000000000000000600082015250565b60006122d5601083611fd0565b91506122e08261229f565b602082019050919050565b60006020820190508181036000830152612304816122c8565b9050919050565b7f6475726174696f6e203d20300000000000000000000000000000000000000000600082015250565b6000612341600c83611fd0565b915061234c8261230b565b602082019050919050565b6000602082019050818103600083015261237081612334565b9050919050565b7f526577617264207472616e73666572206661696c656400000000000000000000600082015250565b60006123ad601683611fd0565b91506123b882612377565b602082019050919050565b600060208201905081810360008301526123dc816123a0565b9050919050565b60006080820190506123f86000830187611b57565b6124056020830186611b57565b6124126040830185611b57565b61241f6060830184611b57565b95945050505050565b7f7769746864726177203d20300000000000000000000000000000000000000000600082015250565b600061245e600c83611fd0565b915061246982612428565b602082019050919050565b6000602082019050818103600083015261248d81612451565b9050919050565b7f696e73756666696369656e74207374616b656400000000000000000000000000600082015250565b60006124ca601383611fd0565b91506124d582612494565b602082019050919050565b600060208201905081810360008301526124f9816124bd565b9050919050565b7f5769746864726177207472616e73666572206661696c65640000000000000000600082015250565b6000612536601883611fd0565b915061254182612500565b602082019050919050565b6000602082019050818103600083015261256581612529565b905091905056fea2646970667358221220db6d338f107abe8924d3892506554dd8a80bab5d3a5c04d599255c287fdf2d9664736f6c63430008140033",
  "linkReferences": {},
  "deployedLinkReferences": {}
}