{
  "_format": "hh-sol-artifact-1",
  "contractName": "MultiTokenLocker",
  "sourceName": "contracts/MultiTokenLocker.sol",
  "abi": [
    {
      "inputs": [
        {
          "internalType": "address",
          "name": "initialOwner",
          "type": "address"
        }
      ],
      "stateMutability": "nonpayable",
      "type": "constructor"
    },
    {
      "inputs": [
        {
          "internalType": "address",
          "name": "owner",
          "type": "address"
        }
      ],
      "name": "OwnableInvalidOwner",
      "type": "error"
    },
    {
      "inputs": [
        {
          "internalType": "address",
          "name": "account",
          "type": "address"
        }
      ],
      "name": "OwnableUnauthorizedAccount",
      "type": "error"
    },
    {
      "inputs": [],
      "name": "ReentrancyGuardReentrantCall",
      "type": "error"
    },
    {
      "anonymous": false,
      "inputs": [
        {
          "indexed": true,
          "internalType": "uint256",
          "name": "lockId",
          "type": "uint256"
        },
        {
          "indexed": false,
          "internalType": "uint256",
          "name": "oldUnlockTime",
          "type": "uint256"
        },
        {
          "indexed": false,
          "internalType": "uint256",
          "name": "newUnlockTime",
          "type": "uint256"
        }
      ],
      "name": "LockExtended",
      "type": "event"
    },
    {
      "anonymous": false,
      "inputs": [
        {
          "indexed": true,
          "internalType": "uint256",
          "name": "lockId",
          "type": "uint256"
        },
        {
          "indexed": false,
          "internalType": "uint256",
          "name": "addedAmount",
          "type": "uint256"
        },
        {
          "indexed": false,
          "internalType": "uint256",
          "name": "newTotalAmount",
          "type": "uint256"
        }
      ],
      "name": "LockIncreased",
      "type": "event"
    },
    {
      "anonymous": false,
      "inputs": [
        {
          "indexed": true,
          "internalType": "address",
          "name": "previousOwner",
          "type": "address"
        },
        {
          "indexed": true,
          "internalType": "address",
          "name": "newOwner",
          "type": "address"
        }
      ],
      "name": "OwnershipTransferred",
      "type": "event"
    },
    {
      "anonymous": false,
      "inputs": [
        {
          "indexed": true,
          "internalType": "uint256",
          "name": "lockId",
          "type": "uint256"
        },
        {
          "indexed": true,
          "internalType": "address",
          "name": "token",
          "type": "address"
        },
        {
          "indexed": true,
          "internalType": "address",
          "name": "owner",
          "type": "address"
        },
        {
          "indexed": false,
          "internalType": "uint256",
          "name": "amount",
          "type": "uint256"
        },
        {
          "indexed": false,
          "internalType": "uint256",
          "name": "startTime",
          "type": "uint256"
        },
        {
          "indexed": false,
          "internalType": "uint256",
          "name": "unlockTime",
          "type": "uint256"
        },
        {
          "indexed": false,
          "internalType": "string",
          "name": "memo",
          "type": "string"
        }
      ],
      "name": "TokensLocked",
      "type": "event"
    },
    {
      "anonymous": false,
      "inputs": [
        {
          "indexed": true,
          "internalType": "address",
          "name": "token",
          "type": "address"
        },
        {
          "indexed": false,
          "internalType": "uint256",
          "name": "amount",
          "type": "uint256"
        }
      ],
      "name": "TokensRescued",
      "type": "event"
    },
    {
      "anonymous": false,
      "inputs": [
        {
          "indexed": true,
          "internalType": "uint256",
          "name": "lockId",
          "type": "uint256"
        },
        {
          "indexed": true,
          "internalType": "address",
          "name": "token",
          "type": "address"
        },
        {
          "indexed": true,
          "internalType": "address",
          "name": "owner",
          "type": "address"
        },
        {
          "indexed": false,
          "internalType": "uint256",
          "name": "amount",
          "type": "uint256"
        }
      ],
      "name": "TokensWithdrawn",
      "type": "event"
    },
    {
      "inputs": [
        {
          "internalType": "uint256",
          "name": "lockId",
          "type": "uint256"
        },
        {
          "internalType": "uint256",
          "name": "newUnlockTime",
          "type": "uint256"
        }
      ],
      "name": "extendLock",
      "outputs": [],
      "stateMutability": "nonpayable",
      "type": "function"
    },
    {
      "inputs": [
        {
          "internalType": "address",
          "name": "user",
          "type": "address"
        }
      ],
      "name": "getUserLocks",
      "outputs": [
        {
          "internalType": "uint256[]",
          "name": "",
          "type": "uint256[]"
        }
      ],
      "stateMutability": "view",
      "type": "function"
    },
    {
      "inputs": [
        {
          "internalType": "uint256",
          "name": "lockId",
          "type": "uint256"
        },
        {
          "internalType": "uint256",
          "name": "addedAmount",
          "type": "uint256"
        }
      ],
      "name": "increaseLockAmount",
      "outputs": [],
      "stateMutability": "nonpayable",
      "type": "function"
    },
    {
      "inputs": [
        {
          "internalType": "address",
          "name": "token",
          "type": "address"
        },
        {
          "internalType": "uint256",
          "name": "amount",
          "type": "uint256"
        },
        {
          "internalType": "uint256",
          "name": "unlockTime",
          "type": "uint256"
        },
        {
          "internalType": "string",
          "name": "memo",
          "type": "string"
        }
      ],
      "name": "lockTokens",
      "outputs": [
        {
          "internalType": "uint256",
          "name": "lockId",
          "type": "uint256"
        }
      ],
      "stateMutability": "nonpayable",
      "type": "function"
    },
    {
      "inputs": [
        {
          "internalType": "uint256",
          "name": "",
          "type": "uint256"
        }
      ],
      "name": "locks",
      "outputs": [
        {
          "internalType": "address",
          "name": "token",
          "type": "address"
        },
        {
          "internalType": "address",
          "name": "owner",
          "type": "address"
        },
        {
          "internalType": "uint256",
          "name": "amount",
          "type": "uint256"
        },
        {
          "internalType": "uint256",
          "name": "startTime",
          "type": "uint256"
        },
        {
          "internalType": "uint256",
          "name": "unlockTime",
          "type": "uint256"
        },
        {
          "internalType": "bool",
          "name": "claimed",
          "type": "bool"
        },
        {
          "internalType": "string",
          "name": "memo",
          "type": "string"
        }
      ],
      "stateMutability": "view",
      "type": "function"
    },
    {
      "inputs": [],
      "name": "nextLockId",
      "outputs": [
        {
          "internalType": "uint256",
          "name": "",
          "type": "uint256"
        }
      ],
      "stateMutability": "view",
      "type": "function"
    },
    {
      "inputs": [],
      "name": "owner",
      "outputs": [
        {
          "internalType": "address",
          "name": "",
          "type": "address"
        }
      ],
      "stateMutability": "view",
      "type": "function"
    },
    {
      "inputs": [],
      "name": "renounceOwnership",
      "outputs": [],
      "stateMutability": "nonpayable",
      "type": "function"
    },
    {
      "inputs": [
        {
          "internalType": "address",
          "name": "token",
          "type": "address"
        },
        {
          "internalType": "uint256",
          "name": "amount",
          "type": "uint256"
        }
      ],
      "name": "rescueTokens",
      "outputs": [],
      "stateMutability": "nonpayable",
      "type": "function"
    },
    {
      "inputs": [
        {
          "internalType": "address",
          "name": "",
          "type": "address"
        }
      ],
      "name": "totalLockedPerToken",
      "outputs": [
        {
          "internalType": "uint256",
          "name": "",
          "type": "uint256"
        }
      ],
      "stateMutability": "view",
      "type": "function"
    },
    {
      "inputs": [
        {
          "internalType": "address",
          "name": "newOwner",
          "type": "address"
        }
      ],
      "name": "transferOwnership",
      "outputs": [],
      "stateMutability": "nonpayable",
      "type": "function"
    },
    {
      "inputs": [
        {
          "internalType": "address",
          "name": "",
          "type": "address"
        },
        {
          "internalType": "uint256",
          "name": "",
          "type": "uint256"
        }
      ],
      "name": "userLocks",
      "outputs": [
        {
          "internalType": "uint256",
          "name": "",
          "type": "uint256"
        }
      ],
      "stateMutability": "view",
      "type": "function"
    },
    {
      "inputs": [
        {
          "internalType": "uint256",
          "name": "lockId",
          "type": "uint256"
        }
      ],
      "name": "withdraw",
      "outputs": [],
      "stateMutability": "nonpayable",
      "type": "function"
    }
  ],
  "bytecode": "0x60806040523480156200001157600080fd5b50604051620026e9380380620026e98339818101604052810190620000379190620001fe565b806001600081905550600073ffffffffffffffffffffffffffffffffffffffff168173ffffffffffffffffffffffffffffffffffffffff1603620000b55760006040517f1e4fbdf7000000000000000000000000000000000000000000000000000000008152600401620000ac919062000241565b60405180910390fd5b620000c681620000ce60201b60201c565b50506200025e565b6000600160009054906101000a900473ffffffffffffffffffffffffffffffffffffffff16905081600160006101000a81548173ffffffffffffffffffffffffffffffffffffffff021916908373ffffffffffffffffffffffffffffffffffffffff1602179055508173ffffffffffffffffffffffffffffffffffffffff168173ffffffffffffffffffffffffffffffffffffffff167f8be0079c531659141344cd1fd0a4f28419497f9722a3daafe3b4186f6b6457e060405160405180910390a35050565b600080fd5b600073ffffffffffffffffffffffffffffffffffffffff82169050919050565b6000620001c68262000199565b9050919050565b620001d881620001b9565b8114620001e457600080fd5b50565b600081519050620001f881620001cd565b92915050565b60006020828403121562000217576200021662000194565b5b60006200022784828501620001e7565b91505092915050565b6200023b81620001b9565b82525050565b600060208201905062000258600083018462000230565b92915050565b61247b806200026e6000396000f3fe608060405234801561001057600080fd5b50600436106100cf5760003560e01c8063715018a61161008c578063c6ee4f5911610066578063c6ee4f59146101ea578063dbfcfc041461021a578063f2fde38b1461024a578063f4dadc6114610266576100cf565b8063715018a6146101925780638da5cb5b1461019c578063aa33fedb146101ba576100cf565b8063070d66bf146100d457806323a35de9146100f05780632e1a7d4d146101205780633b6240321461013c57806357376198146101585780636518a0b314610174575b600080fd5b6100ee60048036038101906100e991906114ee565b61029c565b005b61010a6004803603810190610105919061158c565b610471565b6040516101179190611677565b60405180910390f35b61013a60048036038101906101359190611699565b610508565b005b610156600480360381019061015191906114ee565b610872565b005b610172600480360381019061016d91906116c6565b610b81565b005b61017c610cdc565b6040516101899190611715565b60405180910390f35b61019a610ce2565b005b6101a4610cf6565b6040516101b1919061173f565b60405180910390f35b6101d460048036038101906101cf91906116c6565b610d20565b6040516101e19190611715565b60405180910390f35b61020460048036038101906101ff91906117bf565b610d51565b6040516102119190611715565b60405180910390f35b610234600480360381019061022f919061158c565b611154565b6040516102419190611715565b60405180910390f35b610264600480360381019061025f919061158c565b61116c565b005b610280600480360381019061027b9190611699565b6111f2565b60405161029397969594939291906118f2565b60405180910390f35b60006003600084815260200190815260200160002090503373ffffffffffffffffffffffffffffffffffffffff168160010160009054906101000a900473ffffffffffffffffffffffffffffffffffffffff1673ffffffffffffffffffffffffffffffffffffffff1614610345576040517f08c379a000000000000000000000000000000000000000000000000000000000815260040161033c906119b4565b60405180910390fd5b8060050160009054906101000a900460ff1615610397576040517f08c379a000000000000000000000000000000000000000000000000000000000815260040161038e90611a20565b60405180910390fd5b806004015482116103dd576040517f08c379a00000000000000000000000000000000000000000000000000000000081526004016103d490611a8c565b60405180910390fd5b42821161041f576040517f08c379a000000000000000000000000000000000000000000000000000000000815260040161041690611af8565b60405180910390fd5b600081600401549050828260040181905550837f12c0f64f942f99aa5210c23a8ab729735389400457b66b06895b0700315c3b338285604051610463929190611b18565b60405180910390a250505050565b6060600460008373ffffffffffffffffffffffffffffffffffffffff1673ffffffffffffffffffffffffffffffffffffffff1681526020019081526020016000208054806020026020016040519081016040528092919081815260200182805480156104fc57602002820191906000526020600020905b8154815260200190600101908083116104e8575b50505050509050919050565b610510611309565b60006003600083815260200190815260200160002090503373ffffffffffffffffffffffffffffffffffffffff168160010160009054906101000a900473ffffffffffffffffffffffffffffffffffffffff1673ffffffffffffffffffffffffffffffffffffffff16146105b9576040517f08c379a00000000000000000000000000000000000000000000000000000000081526004016105b0906119b4565b60405180910390fd5b8060050160009054906101000a900460ff161561060b576040517f08c379a000000000000000000000000000000000000000000000000000000000815260040161060290611b8d565b60405180910390fd5b8060040154421015610652576040517f08c379a000000000000000000000000000000000000000000000000000000000815260040161064990611bf9565b60405180910390fd5b60018160050160006101000a81548160ff0219169083151502179055508060020154600560008360000160009054906101000a900473ffffffffffffffffffffffffffffffffffffffff1673ffffffffffffffffffffffffffffffffffffffff1673ffffffffffffffffffffffffffffffffffffffff16815260200190815260200160002060008282546106e69190611c48565b9250508190555060008160000160009054906101000a900473ffffffffffffffffffffffffffffffffffffffff1690508073ffffffffffffffffffffffffffffffffffffffff1663a9059cbb3384600201546040518363ffffffff1660e01b8152600401610755929190611c7c565b6020604051808303816000875af1158015610774573d6000803e3d6000fd5b505050506040513d601f19601f820116820180604052508101906107989190611cd1565b6107d7576040517f08c379a00000000000000000000000000000000000000000000000000000000081526004016107ce90611d4a565b60405180910390fd5b3373ffffffffffffffffffffffffffffffffffffffff168260000160009054906101000a900473ffffffffffffffffffffffffffffffffffffffff1673ffffffffffffffffffffffffffffffffffffffff16847f5db071cb9ca9123fd9158edb7aec7785f1bf14cf64c85989310c146e0e98a7d9856002015460405161085d9190611715565b60405180910390a4505061086f61134f565b50565b61087a611309565b600081116108bd576040517f08c379a00000000000000000000000000000000000000000000000000000000081526004016108b490611db6565b60405180910390fd5b60006003600084815260200190815260200160002090503373ffffffffffffffffffffffffffffffffffffffff168160010160009054906101000a900473ffffffffffffffffffffffffffffffffffffffff1673ffffffffffffffffffffffffffffffffffffffff1614610966576040517f08c379a000000000000000000000000000000000000000000000000000000000815260040161095d906119b4565b60405180910390fd5b8060050160009054906101000a900460ff16156109b8576040517f08c379a00000000000000000000000000000000000000000000000000000000081526004016109af90611a20565b60405180910390fd5b60008160000160009054906101000a900473ffffffffffffffffffffffffffffffffffffffff1690508073ffffffffffffffffffffffffffffffffffffffff166323b872dd3330866040518463ffffffff1660e01b8152600401610a1e93929190611dd6565b6020604051808303816000875af1158015610a3d573d6000803e3d6000fd5b505050506040513d601f19601f82011682018060405250810190610a619190611cd1565b610aa0576040517f08c379a0000000000000000000000000000000000000000000000000000000008152600401610a9790611e59565b60405180910390fd5b82826002016000828254610ab49190611e79565b9250508190555082600560008460000160009054906101000a900473ffffffffffffffffffffffffffffffffffffffff1673ffffffffffffffffffffffffffffffffffffffff1673ffffffffffffffffffffffffffffffffffffffff1681526020019081526020016000206000828254610b2e9190611e79565b92505081905550837f20a35ba5aff675daef33f7ee50ccd50e552fdcd699b96998ed6a28bf6f4e570f848460020154604051610b6b929190611b18565b60405180910390a25050610b7d61134f565b5050565b610b89611359565b6000600560008473ffffffffffffffffffffffffffffffffffffffff1673ffffffffffffffffffffffffffffffffffffffff1681526020019081526020016000205414610c0b576040517f08c379a0000000000000000000000000000000000000000000000000000000008152600401610c0290611ef9565b60405180910390fd5b8173ffffffffffffffffffffffffffffffffffffffff1663a9059cbb33836040518363ffffffff1660e01b8152600401610c46929190611c7c565b6020604051808303816000875af1158015610c65573d6000803e3d6000fd5b505050506040513d601f19601f82011682018060405250810190610c899190611cd1565b508173ffffffffffffffffffffffffffffffffffffffff167f68f67de89e96b13a3ea058af5fd44cc125efceb528482d539c7b43db2faa066e82604051610cd09190611715565b60405180910390a25050565b60025481565b610cea611359565b610cf460006113e0565b565b6000600160009054906101000a900473ffffffffffffffffffffffffffffffffffffffff16905090565b60046020528160005260406000208181548110610d3c57600080fd5b90600052602060002001600091509150505481565b6000610d5b611309565b600073ffffffffffffffffffffffffffffffffffffffff168673ffffffffffffffffffffffffffffffffffffffff1603610dca576040517f08c379a0000000000000000000000000000000000000000000000000000000008152600401610dc190611f65565b60405180910390fd5b60008511610e0d576040517f08c379a0000000000000000000000000000000000000000000000000000000008152600401610e0490611fd1565b60405180910390fd5b428411610e4f576040517f08c379a0000000000000000000000000000000000000000000000000000000008152600401610e469061203d565b60405180910390fd5b60008690508073ffffffffffffffffffffffffffffffffffffffff166323b872dd3330896040518463ffffffff1660e01b8152600401610e9193929190611dd6565b6020604051808303816000875af1158015610eb0573d6000803e3d6000fd5b505050506040513d601f19601f82011682018060405250810190610ed49190611cd1565b610f13576040517f08c379a0000000000000000000000000000000000000000000000000000000008152600401610f0a90611e59565b60405180910390fd5b600260008154610f229061205d565b91905081905591506000600360008481526020019081526020016000209050878160000160006101000a81548173ffffffffffffffffffffffffffffffffffffffff021916908373ffffffffffffffffffffffffffffffffffffffff160217905550338160010160006101000a81548173ffffffffffffffffffffffffffffffffffffffff021916908373ffffffffffffffffffffffffffffffffffffffff16021790555086816002018190555042816003018190555085816004018190555060008160050160006101000a81548160ff02191690831515021790555084848260060191826110129291906122eb565b50600460003373ffffffffffffffffffffffffffffffffffffffff1673ffffffffffffffffffffffffffffffffffffffff16815260200190815260200160002083908060018154018082558091505060019003906000526020600020016000909190919091505586600560008a73ffffffffffffffffffffffffffffffffffffffff1673ffffffffffffffffffffffffffffffffffffffff16815260200190815260200160002060008282546110c89190611e79565b925050819055503373ffffffffffffffffffffffffffffffffffffffff168873ffffffffffffffffffffffffffffffffffffffff16847f70ef47a7e75a495010cb4275fcf9e9b6ba98a706cdf3d4f4884ff93cb7d135e68a85600301548b8b8b6040516111399594939291906123f7565b60405180910390a4505061114b61134f565b95945050505050565b60056020528060005260406000206000915090505481565b611174611359565b600073ffffffffffffffffffffffffffffffffffffffff168173ffffffffffffffffffffffffffffffffffffffff16036111e65760006040517f1e4fbdf70000000000000000000000000000000000000000000000000000000081526004016111dd919061173f565b60405180910390fd5b6111ef816113e0565b50565b60036020528060005260406000206000915090508060000160009054906101000a900473ffffffffffffffffffffffffffffffffffffffff16908060010160009054906101000a900473ffffffffffffffffffffffffffffffffffffffff16908060020154908060030154908060040154908060050160009054906101000a900460ff16908060060180546112869061210e565b80601f01602080910402602001604051908101604052809291908181526020018280546112b29061210e565b80156112ff5780601f106112d4576101008083540402835291602001916112ff565b820191906000526020600020905b8154815290600101906020018083116112e257829003601f168201915b5050505050905087565b600260005403611345576040517f3ee5aeb500000000000000000000000000000000000000000000000000000000815260040160405180910390fd5b6002600081905550565b6001600081905550565b6113616114a6565b73ffffffffffffffffffffffffffffffffffffffff1661137f610cf6565b73ffffffffffffffffffffffffffffffffffffffff16146113de576113a26114a6565b6040517f118cdaa70000000000000000000000000000000000000000000000000000000081526004016113d5919061173f565b60405180910390fd5b565b6000600160009054906101000a900473ffffffffffffffffffffffffffffffffffffffff16905081600160006101000a81548173ffffffffffffffffffffffffffffffffffffffff021916908373ffffffffffffffffffffffffffffffffffffffff1602179055508173ffffffffffffffffffffffffffffffffffffffff168173ffffffffffffffffffffffffffffffffffffffff167f8be0079c531659141344cd1fd0a4f28419497f9722a3daafe3b4186f6b6457e060405160405180910390a35050565b600033905090565b600080fd5b600080fd5b6000819050919050565b6114cb816114b8565b81146114d657600080fd5b50565b6000813590506114e8816114c2565b92915050565b60008060408385031215611505576115046114ae565b5b6000611513858286016114d9565b9250506020611524858286016114d9565b9150509250929050565b600073ffffffffffffffffffffffffffffffffffffffff82169050919050565b60006115598261152e565b9050919050565b6115698161154e565b811461157457600080fd5b50565b60008135905061158681611560565b92915050565b6000602082840312156115a2576115a16114ae565b5b60006115b084828501611577565b91505092915050565b600081519050919050565b600082825260208201905092915050565b6000819050602082019050919050565b6115ee816114b8565b82525050565b600061160083836115e5565b60208301905092915050565b6000602082019050919050565b6000611624826115b9565b61162e81856115c4565b9350611639836115d5565b8060005b8381101561166a57815161165188826115f4565b975061165c8361160c565b92505060018101905061163d565b5085935050505092915050565b600060208201905081810360008301526116918184611619565b905092915050565b6000602082840312156116af576116ae6114ae565b5b60006116bd848285016114d9565b91505092915050565b600080604083850312156116dd576116dc6114ae565b5b60006116eb85828601611577565b92505060206116fc858286016114d9565b9150509250929050565b61170f816114b8565b82525050565b600060208201905061172a6000830184611706565b92915050565b6117398161154e565b82525050565b60006020820190506117546000830184611730565b92915050565b600080fd5b600080fd5b600080fd5b60008083601f84011261177f5761177e61175a565b5b8235905067ffffffffffffffff81111561179c5761179b61175f565b5b6020830191508360018202830111156117b8576117b7611764565b5b9250929050565b6000806000806000608086880312156117db576117da6114ae565b5b60006117e988828901611577565b95505060206117fa888289016114d9565b945050604061180b888289016114d9565b935050606086013567ffffffffffffffff81111561182c5761182b6114b3565b5b61183888828901611769565b92509250509295509295909350565b60008115159050919050565b61185c81611847565b82525050565b600081519050919050565b600082825260208201905092915050565b60005b8381101561189c578082015181840152602081019050611881565b60008484015250505050565b6000601f19601f8301169050919050565b60006118c482611862565b6118ce818561186d565b93506118de81856020860161187e565b6118e7816118a8565b840191505092915050565b600060e082019050611907600083018a611730565b6119146020830189611730565b6119216040830188611706565b61192e6060830187611706565b61193b6080830186611706565b61194860a0830185611853565b81810360c083015261195a81846118b9565b905098975050505050505050565b7f4e6f74206c6f636b206f776e6572000000000000000000000000000000000000600082015250565b600061199e600e8361186d565b91506119a982611968565b602082019050919050565b600060208201905081810360008301526119cd81611991565b9050919050565b7f4c6f636b20636c61696d65640000000000000000000000000000000000000000600082015250565b6000611a0a600c8361186d565b9150611a15826119d4565b602082019050919050565b60006020820190508181036000830152611a39816119fd565b9050919050565b7f4d75737420657874656e64000000000000000000000000000000000000000000600082015250565b6000611a76600b8361186d565b9150611a8182611a40565b602082019050919050565b60006020820190508181036000830152611aa581611a69565b9050919050565b7f4e657720756e6c6f636b20696e20706173740000000000000000000000000000600082015250565b6000611ae260128361186d565b9150611aed82611aac565b602082019050919050565b60006020820190508181036000830152611b1181611ad5565b9050919050565b6000604082019050611b2d6000830185611706565b611b3a6020830184611706565b9392505050565b7f416c726561647920636c61696d65640000000000000000000000000000000000600082015250565b6000611b77600f8361186d565b9150611b8282611b41565b602082019050919050565b60006020820190508181036000830152611ba681611b6a565b9050919050565b7f4e6f7420756e6c6f636b65640000000000000000000000000000000000000000600082015250565b6000611be3600c8361186d565b9150611bee82611bad565b602082019050919050565b60006020820190508181036000830152611c1281611bd6565b9050919050565b7f4e487b7100000000000000000000000000000000000000000000000000000000600052601160045260246000fd5b6000611c53826114b8565b9150611c5e836114b8565b9250828203905081811115611c7657611c75611c19565b5b92915050565b6000604082019050611c916000830185611730565b611c9e6020830184611706565b9392505050565b611cae81611847565b8114611cb957600080fd5b50565b600081519050611ccb81611ca5565b92915050565b600060208284031215611ce757611ce66114ae565b5b6000611cf584828501611cbc565b91505092915050565b7f5769746864726177207472616e73666572206661696c65640000000000000000600082015250565b6000611d3460188361186d565b9150611d3f82611cfe565b602082019050919050565b60006020820190508181036000830152611d6381611d27565b9050919050565b7f4164646564203d20300000000000000000000000000000000000000000000000600082015250565b6000611da060098361186d565b9150611dab82611d6a565b602082019050919050565b60006020820190508181036000830152611dcf81611d93565b9050919050565b6000606082019050611deb6000830186611730565b611df86020830185611730565b611e056040830184611706565b949350505050565b7f5472616e73666572206661696c65640000000000000000000000000000000000600082015250565b6000611e43600f8361186d565b9150611e4e82611e0d565b602082019050919050565b60006020820190508181036000830152611e7281611e36565b9050919050565b6000611e84826114b8565b9150611e8f836114b8565b9250828201905080821115611ea757611ea6611c19565b5b92915050565b7f546f6b656e207374696c6c206c6f636b65640000000000000000000000000000600082015250565b6000611ee360128361186d565b9150611eee82611ead565b602082019050919050565b60006020820190508181036000830152611f1281611ed6565b9050919050565b7f496e76616c696420746f6b656e00000000000000000000000000000000000000600082015250565b6000611f4f600d8361186d565b9150611f5a82611f19565b602082019050919050565b60006020820190508181036000830152611f7e81611f42565b9050919050565b7f416d6f756e74203d203000000000000000000000000000000000000000000000600082015250565b6000611fbb600a8361186d565b9150611fc682611f85565b602082019050919050565b60006020820190508181036000830152611fea81611fae565b9050919050565b7f556e6c6f636b20696e2074686520706173740000000000000000000000000000600082015250565b600061202760128361186d565b915061203282611ff1565b602082019050919050565b600060208201905081810360008301526120568161201a565b9050919050565b6000612068826114b8565b91507fffffffffffffffffffffffffffffffffffffffffffffffffffffffffffffffff820361209a57612099611c19565b5b600182019050919050565b600082905092915050565b7f4e487b7100000000000000000000000000000000000000000000000000000000600052604160045260246000fd5b7f4e487b7100000000000000000000000000000000000000000000000000000000600052602260045260246000fd5b6000600282049050600182168061212657607f821691505b602082108103612139576121386120df565b5b50919050565b60008190508160005260206000209050919050565b60006020601f8301049050919050565b600082821b905092915050565b6000600883026121a17fffffffffffffffffffffffffffffffffffffffffffffffffffffffffffffffff82612164565b6121ab8683612164565b95508019841693508086168417925050509392505050565b6000819050919050565b60006121e86121e36121de846114b8565b6121c3565b6114b8565b9050919050565b6000819050919050565b612202836121cd565b61221661220e826121ef565b848454612171565b825550505050565b600090565b61222b61221e565b6122368184846121f9565b505050565b5b8181101561225a5761224f600082612223565b60018101905061223c565b5050565b601f82111561229f576122708161213f565b61227984612154565b81016020851015612288578190505b61229c61229485612154565b83018261223b565b50505b505050565b600082821c905092915050565b60006122c2600019846008026122a4565b1980831691505092915050565b60006122db83836122b1565b9150826002028217905092915050565b6122f583836120a5565b67ffffffffffffffff81111561230e5761230d6120b0565b5b612318825461210e565b61232382828561225e565b6000601f8311600181146123525760008415612340578287013590505b61234a85826122cf565b8655506123b2565b601f1984166123608661213f565b60005b8281101561238857848901358255600182019150602085019450602081019050612363565b868310156123a557848901356123a1601f8916826122b1565b8355505b6001600288020188555050505b50505050505050565b82818337600083830152505050565b60006123d6838561186d565b93506123e38385846123bb565b6123ec836118a8565b840190509392505050565b600060808201905061240c6000830188611706565b6124196020830187611706565b6124266040830186611706565b81810360608301526124398184866123ca565b9050969550505050505056fea2646970667358221220893cb41f0bf2a28881de2bb2049cd1bc9ee92112c91d713c032ffc2285656eba64736f6c63430008140033",
  "linkReferences": {},
  "deployedLinkReferences": {}
}