{
  "_format": "hh-sol-artifact-1",
  "contractName": "LaunchpadToken",
  "sourceName": "contracts/LaunchpadToken.sol",
  "abi": [
    {
      "inputs": [
        {
          "internalType": "string",
          "name": "name_",
          "type": "string"
        },
        {
          "internalType": "string",
          "name": "symbol_",
          "type": "string"
        },
        {
          "internalType": "uint8",
          "name": "decimals_",
          "type": "uint8"
        },
        {
          "internalType": "uint256",
          "name": "initialSupply_",
          "type": "uint256"
        },
        {
          "internalType": "uint256",
          "name": "maxSupply_",
          "type": "uint256"
        },
        {
          "internalType": "address",
          "name": "initialOwner_",
          "type": "address"
        },
        {
          "internalType": "bool",
          "name": "mintable_",
          "type": "bool"
        },
        {
          "internalType": "bool",
          "name": "burnable_",
          "type": "bool"
        }
      ],
      "stateMutability": "nonpayable",
      "type": "constructor"
    },
    {
      "inputs": [
        {
          "internalType": "address",
          "name": "spender",
          "type": "address"
        },
        {
          "internalType": "uint256",
          "name": "allowance",
          "type": "uint256"
        },
        {
          "internalType": "uint256",
          "name": "needed",
          "type": "uint256"
        }
      ],
      "name": "ERC20InsufficientAllowance",
      "type": "error"
    },
    {
      "inputs": [
        {
          "internalType": "address",
          "name": "sender",
          "type": "address"
        },
        {
          "internalType": "uint256",
          "name": "balance",
          "type": "uint256"
        },
        {
          "internalType": "uint256",
          "name": "needed",
          "type": "uint256"
        }
      ],
      "name": "ERC20InsufficientBalance",
      "type": "error"
    },
    {
      "inputs": [
        {
          "internalType": "address",
          "name": "approver",
          "type": "address"
        }
      ],
      "name": "ERC20InvalidApprover",
      "type": "error"
    },
    {
      "inputs": [
        {
          "internalType": "address",
          "name": "receiver",
          "type": "address"
        }
      ],
      "name": "ERC20InvalidReceiver",
      "type": "error"
    },
    {
      "inputs": [
        {
          "internalType": "address",
          "name": "sender",
          "type": "address"
        }
      ],
      "name": "ERC20InvalidSender",
      "type": "error"
    },
    {
      "inputs": [
        {
          "internalType": "address",
          "name": "spender",
          "type": "address"
        }
      ],
      "name": "ERC20InvalidSpender",
      "type": "error"
    },
    {
      "inputs": [
        {
          "internalType": "address",
          "name": "owner",
          "type": "address"
        }
      ],
      "name": "OwnableInvalidOwner",
      "type": "error"
    },
    {
      "inputs": [
        {
          "internalType": "address",
          "name": "account",
          "type": "address"
        }
      ],
      "name": "OwnableUnauthorizedAccount",
      "type": "error"
    },
    {
      "anonymous": false,
      "inputs": [
        {
          "indexed": true,
          "internalType": "address",
          "name": "owner",
          "type": "address"
        },
        {
          "indexed": true,
          "internalType": "address",
          "name": "spender",
          "type": "address"
        },
        {
          "indexed": false,
          "internalType": "uint256",
          "name": "value",
          "type": "uint256"
        }
      ],
      "name": "Approval",
      "type": "event"
    },
    {
      "anonymous": false,
      "inputs": [
        {
          "indexed": true,
          "internalType": "address",
          "name": "previousOwner",
          "type": "address"
        },
        {
          "indexed": true,
          "internalType": "address",
          "name": "newOwner",
          "type": "address"
        }
      ],
      "name": "OwnershipTransferred",
      "type": "event"
    },
    {
      "anonymous": false,
      "inputs": [
        {
          "indexed": true,
          "internalType": "address",
          "name": "from",
          "type": "address"
        },
        {
          "indexed": true,
          "internalType": "address",
          "name": "to",
          "type": "address"
        },
        {
          "indexed": false,
          "internalType": "uint256",
          "name": "value",
          "type": "uint256"
        }
      ],
      "name": "Transfer",
      "type": "event"
    },
    {
      "inputs": [
        {
          "internalType": "address",
          "name": "owner",
          "type": "address"
        },
        {
          "internalType": "address",
          "name": "spender",
          "type": "address"
        }
      ],
      "name": "allowance",
      "outputs": [
        {
          "internalType": "uint256",
          "name": "",
          "type": "uint256"
        }
      ],
      "stateMutability": "view",
      "type": "function"
    },
    {
      "inputs": [
        {
          "internalType": "address",
          "name": "spender",
          "type": "address"
        },
        {
          "internalType": "uint256",
          "name": "value",
          "type": "uint256"
        }
      ],
      "name": "approve",
      "outputs": [
        {
          "internalType": "bool",
          "name": "",
          "type": "bool"
        }
      ],
      "stateMutability": "nonpayable",
      "type": "function"
    },
    {
      "inputs": [
        {
          "internalType": "address",
          "name": "account",
          "type": "address"
        }
      ],
      "name": "balanceOf",
      "outputs": [
        {
          "internalType": "uint256",
          "name": "",
          "type": "uint256"
        }
      ],
      "stateMutability": "view",
      "type": "function"
    },
    {
      "inputs": [
        {
          "internalType": "uint256",
          "name": "amount",
          "type": "uint256"
        }
      ],
      "name": "burn",
      "outputs": [],
      "stateMutability": "nonpayable",
      "type": "function"
    },
    {
      "inputs": [
        {
          "internalType": "address",
          "name": "account",
          "type": "address"
        },
        {
          "internalType": "uint256",
          "name": "amount",
          "type": "uint256"
        }
      ],
      "name": "burnFrom",
      "outputs": [],
      "stateMutability": "nonpayable",
      "type": "function"
    },
    {
      "inputs": [],
      "name": "decimals",
      "outputs": [
        {
          "internalType": "uint8",
          "name": "",
          "type": "uint8"
        }
      ],
      "stateMutability": "view",
      "type": "function"
    },
    {
      "inputs": [],
      "name": "isBurnable",
      "outputs": [
        {
          "internalType": "bool",
          "name": "",
          "type": "bool"
        }
      ],
      "stateMutability": "view",
      "type": "function"
    },
    {
      "inputs": [],
      "name": "isMintable",
      "outputs": [
        {
          "internalType": "bool",
          "name": "",
          "type": "bool"
        }
      ],
      "stateMutability": "view",
      "type": "function"
    },
    {
      "inputs": [],
      "name": "maxSupply",
      "outputs": [
        {
          "internalType": "uint256",
          "name": "",
          "type": "uint256"
        }
      ],
      "stateMutability": "view",
      "type": "function"
    },
    {
      "inputs": [
        {
          "internalType": "address",
          "name": "to",
          "type": "address"
        },
        {
          "internalType": "uint256",
          "name": "amount",
          "type": "uint256"
        }
      ],
      "name": "mint",
      "outputs": [],
      "stateMutability": "nonpayable",
      "type": "function"
    },
    {
      "inputs": [],
      "name": "name",
      "outputs": [
        {
          "internalType": "string",
          "name": "",
          "type": "string"
        }
      ],
      "stateMutability": "view",
      "type": "function"
    },
    {
      "inputs": [],
      "name": "owner",
      "outputs": [
        {
          "internalType": "address",
          "name": "",
          "type": "address"
        }
      ],
      "stateMutability": "view",
      "type": "function"
    },
    {
      "inputs": [],
      "name": "renounceOwnership",
      "outputs": [],
      "stateMutability": "nonpayable",
      "type": "function"
    },
    {
      "inputs": [],
      "name": "symbol",
      "outputs": [
        {
          "internalType": "string",
          "name": "",
          "type": "string"
        }
      ],
      "stateMutability": "view",
      "type": "function"
    },
    {
      "inputs": [],
      "name": "totalSupply",
      "outputs": [
        {
          "internalType": "uint256",
          "name": "",
          "type": "uint256"
        }
      ],
      "stateMutability": "view",
      "type": "function"
    },
    {
      "inputs": [
        {
          "internalType": "address",
          "name": "to",
          "type": "address"
        },
        {
          "internalType": "uint256",
          "name": "value",
          "type": "uint256"
        }
      ],
      "name": "transfer",
      "outputs": [
        {
          "internalType": "bool",
          "name": "",
          "type": "bool"
        }
      ],
      "stateMutability": "nonpayable",
      "type": "function"
    },
    {
      "inputs": [
        {
          "internalType": "address",
          "name": "from",
          "type": "address"
        },
        {
          "internalType": "address",
          "name": "to",
          "type": "address"
        },
        {
          "internalType": "uint256",
          "name": "value",
          "type": "uint256"
        }
      ],
      "name": "transferFrom",
      "outputs": [
        {
          "internalType": "bool",
          "name": "",
          "type": "bool"
        }
      ],
      "stateMutability": "nonpayable",
      "type": "function"
    },
    {
      "inputs": [
        {
          "internalType": "address",
          "name": "newOwner",
          "type": "address"
        }
      ],
      "name": "transferOwnership",
      "outputs": [],
      "stateMutability": "nonpayable",
      "type": "function"
    }
  ],
  "bytecode": "0x6101006040523480156200001257600080fd5b506040516200271e3803806200271e83398181016040528101906200003891906200084a565b82888881600390816200004c919062000b92565b5080600490816200005e919062000b92565b505050600073ffffffffffffffffffffffffffffffffffffffff168173ffffffffffffffffffffffffffffffffffffffff1603620000d65760006040517f1e4fbdf7000000000000000000000000000000000000000000000000000000008152600401620000cd919062000c8a565b60405180910390fd5b620000e7816200021960201b60201c565b50600084116200012e576040517f08c379a0000000000000000000000000000000000000000000000000000000008152600401620001259062000d08565b60405180910390fd5b8385111562000174576040517f08c379a00000000000000000000000000000000000000000000000000000000081526004016200016b9062000d7a565b60405180910390fd5b81620001c057838514620001bf576040517f08c379a0000000000000000000000000000000000000000000000000000000008152600401620001b69062000e12565b60405180910390fd5b5b8560ff1660808160ff16815250508360a0818152505081151560c08115158152505080151560e08115158152505060008511156200020b576200020a8386620002df60201b60201c565b5b505050505050505062000f09565b6000600560009054906101000a900473ffffffffffffffffffffffffffffffffffffffff16905081600560006101000a81548173ffffffffffffffffffffffffffffffffffffffff021916908373ffffffffffffffffffffffffffffffffffffffff1602179055508173ffffffffffffffffffffffffffffffffffffffff168173ffffffffffffffffffffffffffffffffffffffff167f8be0079c531659141344cd1fd0a4f28419497f9722a3daafe3b4186f6b6457e060405160405180910390a35050565b600073ffffffffffffffffffffffffffffffffffffffff168273ffffffffffffffffffffffffffffffffffffffff1603620003545760006040517fec442f050000000000000000000000000000000000000000000000000000000081526004016200034b919062000c8a565b60405180910390fd5b62000368600083836200036c60201b60201c565b5050565b600073ffffffffffffffffffffffffffffffffffffffff168373ffffffffffffffffffffffffffffffffffffffff1603620003c2578060026000828254620003b5919062000e63565b9250508190555062000498565b60008060008573ffffffffffffffffffffffffffffffffffffffff1673ffffffffffffffffffffffffffffffffffffffff1681526020019081526020016000205490508181101562000451578381836040517fe450d38c000000000000000000000000000000000000000000000000000000008152600401620004489392919062000eaf565b60405180910390fd5b8181036000808673ffffffffffffffffffffffffffffffffffffffff1673ffffffffffffffffffffffffffffffffffffffff16815260200190815260200160002081905550505b600073ffffffffffffffffffffffffffffffffffffffff168273ffffffffffffffffffffffffffffffffffffffff1603620004e3578060026000828254039250508190555062000530565b806000808473ffffffffffffffffffffffffffffffffffffffff1673ffffffffffffffffffffffffffffffffffffffff168152602001908152602001600020600082825401925050819055505b8173ffffffffffffffffffffffffffffffffffffffff168373ffffffffffffffffffffffffffffffffffffffff167fddf252ad1be2c89b69c2b068fc378daa952ba7f163c4a11628f55a4df523b3ef836040516200058f919062000eec565b60405180910390a3505050565b6000604051905090565b600080fd5b600080fd5b600080fd5b600080fd5b6000601f19601f8301169050919050565b7f4e487b7100000000000000000000000000000000000000000000000000000000600052604160045260246000fd5b6200060582620005ba565b810181811067ffffffffffffffff82111715620006275762000626620005cb565b5b80604052505050565b60006200063c6200059c565b90506200064a8282620005fa565b919050565b600067ffffffffffffffff8211156200066d576200066c620005cb565b5b6200067882620005ba565b9050602081019050919050565b60005b83811015620006a557808201518184015260208101905062000688565b60008484015250505050565b6000620006c8620006c2846200064f565b62000630565b905082815260208101848484011115620006e757620006e6620005b5565b5b620006f484828562000685565b509392505050565b600082601f830112620007145762000713620005b0565b5b815162000726848260208601620006b1565b91505092915050565b600060ff82169050919050565b62000747816200072f565b81146200075357600080fd5b50565b60008151905062000767816200073c565b92915050565b6000819050919050565b62000782816200076d565b81146200078e57600080fd5b50565b600081519050620007a28162000777565b92915050565b600073ffffffffffffffffffffffffffffffffffffffff82169050919050565b6000620007d582620007a8565b9050919050565b620007e781620007c8565b8114620007f357600080fd5b50565b6000815190506200080781620007dc565b92915050565b60008115159050919050565b62000824816200080d565b81146200083057600080fd5b50565b600081519050620008448162000819565b92915050565b600080600080600080600080610100898b0312156200086e576200086d620005a6565b5b600089015167ffffffffffffffff8111156200088f576200088e620005ab565b5b6200089d8b828c01620006fc565b985050602089015167ffffffffffffffff811115620008c157620008c0620005ab565b5b620008cf8b828c01620006fc565b9750506040620008e28b828c0162000756565b9650506060620008f58b828c0162000791565b9550506080620009088b828c0162000791565b94505060a06200091b8b828c01620007f6565b93505060c06200092e8b828c0162000833565b92505060e0620009418b828c0162000833565b9150509295985092959890939650565b600081519050919050565b7f4e487b7100000000000000000000000000000000000000000000000000000000600052602260045260246000fd5b60006002820490506001821680620009a457607f821691505b602082108103620009ba57620009b96200095c565b5b50919050565b60008190508160005260206000209050919050565b60006020601f8301049050919050565b600082821b905092915050565b60006008830262000a247fffffffffffffffffffffffffffffffffffffffffffffffffffffffffffffffff82620009e5565b62000a308683620009e5565b95508019841693508086168417925050509392505050565b6000819050919050565b600062000a7362000a6d62000a67846200076d565b62000a48565b6200076d565b9050919050565b6000819050919050565b62000a8f8362000a52565b62000aa762000a9e8262000a7a565b848454620009f2565b825550505050565b600090565b62000abe62000aaf565b62000acb81848462000a84565b505050565b5b8181101562000af35762000ae760008262000ab4565b60018101905062000ad1565b5050565b601f82111562000b425762000b0c81620009c0565b62000b1784620009d5565b8101602085101562000b27578190505b62000b3f62000b3685620009d5565b83018262000ad0565b50505b505050565b600082821c905092915050565b600062000b676000198460080262000b47565b1980831691505092915050565b600062000b82838362000b54565b9150826002028217905092915050565b62000b9d8262000951565b67ffffffffffffffff81111562000bb95762000bb8620005cb565b5b62000bc582546200098b565b62000bd282828562000af7565b600060209050601f83116001811462000c0a576000841562000bf5578287015190505b62000c01858262000b74565b86555062000c71565b601f19841662000c1a86620009c0565b60005b8281101562000c445784890151825560018201915060208501945060208101905062000c1d565b8683101562000c64578489015162000c60601f89168262000b54565b8355505b6001600288020188555050505b505050505050565b62000c8481620007c8565b82525050565b600060208201905062000ca1600083018462000c79565b92915050565b600082825260208201905092915050565b7f4d617820737570706c79206d757374206265203e203000000000000000000000600082015250565b600062000cf060168362000ca7565b915062000cfd8262000cb8565b602082019050919050565b6000602082019050818103600083015262000d238162000ce1565b9050919050565b7f496e697469616c203e206d617820737570706c79000000000000000000000000600082015250565b600062000d6260148362000ca7565b915062000d6f8262000d2a565b602082019050919050565b6000602082019050818103600083015262000d958162000d53565b9050919050565b7f466978656420737570706c793a20696e697469616c206d75737420657175616c60008201527f206d617800000000000000000000000000000000000000000000000000000000602082015250565b600062000dfa60248362000ca7565b915062000e078262000d9c565b604082019050919050565b6000602082019050818103600083015262000e2d8162000deb565b9050919050565b7f4e487b7100000000000000000000000000000000000000000000000000000000600052601160045260246000fd5b600062000e70826200076d565b915062000e7d836200076d565b925082820190508082111562000e985762000e9762000e34565b5b92915050565b62000ea9816200076d565b82525050565b600060608201905062000ec6600083018662000c79565b62000ed5602083018562000e9e565b62000ee4604083018462000e9e565b949350505050565b600060208201905062000f03600083018462000e9e565b92915050565b60805160a05160c05160e0516117bf62000f5f600039600081816105780152818161066c015261075001526000818161049501526105ec0152600081816104f501526108530152600061046701526117bf6000f3fe608060405234801561001057600080fd5b50600436106101165760003560e01c8063715018a6116100a257806395d89b411161007157806395d89b41146102bd578063a9059cbb146102db578063d5abeb011461030b578063dd62ed3e14610329578063f2fde38b1461035957610116565b8063715018a61461025b57806379cc679014610265578063883356d9146102815780638da5cb5b1461029f57610116565b8063313ce567116100e9578063313ce567146101b757806340c10f19146101d557806342966c68146101f157806346b45af71461020d57806370a082311461022b57610116565b806306fdde031461011b578063095ea7b31461013957806318160ddd1461016957806323b872dd14610187575b600080fd5b610123610375565b6040516101309190611202565b60405180910390f35b610153600480360381019061014e91906112bd565b610407565b6040516101609190611318565b60405180910390f35b61017161042a565b60405161017e9190611342565b60405180910390f35b6101a1600480360381019061019c919061135d565b610434565b6040516101ae9190611318565b60405180910390f35b6101bf610463565b6040516101cc91906113cc565b60405180910390f35b6101ef60048036038101906101ea91906112bd565b61048b565b005b61020b600480360381019061020691906113e7565b610576565b005b6102156105ea565b6040516102229190611318565b60405180910390f35b61024560048036038101906102409190611414565b61060e565b6040516102529190611342565b60405180910390f35b610263610656565b005b61027f600480360381019061027a91906112bd565b61066a565b005b61028961074e565b6040516102969190611318565b60405180910390f35b6102a7610772565b6040516102b49190611450565b60405180910390f35b6102c561079c565b6040516102d29190611202565b60405180910390f35b6102f560048036038101906102f091906112bd565b61082e565b6040516103029190611318565b60405180910390f35b610313610851565b6040516103209190611342565b60405180910390f35b610343600480360381019061033e919061146b565b610875565b6040516103509190611342565b60405180910390f35b610373600480360381019061036e9190611414565b6108fc565b005b606060038054610384906114da565b80601f01602080910402602001604051908101604052809291908181526020018280546103b0906114da565b80156103fd5780601f106103d2576101008083540402835291602001916103fd565b820191906000526020600020905b8154815290600101906020018083116103e057829003601f168201915b5050505050905090565b600080610412610982565b905061041f81858561098a565b600191505092915050565b6000600254905090565b60008061043f610982565b905061044c85828561099c565b610457858585610a31565b60019150509392505050565b60007f0000000000000000000000000000000000000000000000000000000000000000905090565b610493610b25565b7f00000000000000000000000000000000000000000000000000000000000000006104f3576040517f08c379a00000000000000000000000000000000000000000000000000000000081526004016104ea90611557565b60405180910390fd5b7f00000000000000000000000000000000000000000000000000000000000000008161051d61042a565b61052791906115a6565b1115610568576040517f08c379a000000000000000000000000000000000000000000000000000000000815260040161055f90611626565b60405180910390fd5b6105728282610bac565b5050565b7f00000000000000000000000000000000000000000000000000000000000000006105d6576040517f08c379a00000000000000000000000000000000000000000000000000000000081526004016105cd90611692565b60405180910390fd5b6105e76105e1610982565b82610c2e565b50565b7f000000000000000000000000000000000000000000000000000000000000000081565b60008060008373ffffffffffffffffffffffffffffffffffffffff1673ffffffffffffffffffffffffffffffffffffffff168152602001908152602001600020549050919050565b61065e610b25565b6106686000610cb0565b565b7f00000000000000000000000000000000000000000000000000000000000000006106ca576040517f08c379a00000000000000000000000000000000000000000000000000000000081526004016106c190611692565b60405180910390fd5b60006106dd836106d8610982565b610875565b905081811015610722576040517f08c379a0000000000000000000000000000000000000000000000000000000008152600401610719906116fe565b60405180910390fd5b61073f8361072e610982565b848461073a919061171e565b61098a565b6107498383610c2e565b505050565b7f000000000000000000000000000000000000000000000000000000000000000081565b6000600560009054906101000a900473ffffffffffffffffffffffffffffffffffffffff16905090565b6060600480546107ab906114da565b80601f01602080910402602001604051908101604052809291908181526020018280546107d7906114da565b80156108245780601f106107f957610100808354040283529160200191610824565b820191906000526020600020905b81548152906001019060200180831161080757829003601f168201915b5050505050905090565b600080610839610982565b9050610846818585610a31565b600191505092915050565b7f000000000000000000000000000000000000000000000000000000000000000081565b6000600160008473ffffffffffffffffffffffffffffffffffffffff1673ffffffffffffffffffffffffffffffffffffffff16815260200190815260200160002060008373ffffffffffffffffffffffffffffffffffffffff1673ffffffffffffffffffffffffffffffffffffffff16815260200190815260200160002054905092915050565b610904610b25565b600073ffffffffffffffffffffffffffffffffffffffff168173ffffffffffffffffffffffffffffffffffffffff16036109765760006040517f1e4fbdf700000000000000000000000000000000000000000000000000000000815260040161096d9190611450565b60405180910390fd5b61097f81610cb0565b50565b600033905090565b6109978383836001610d76565b505050565b60006109a88484610875565b90507fffffffffffffffffffffffffffffffffffffffffffffffffffffffffffffffff811015610a2b5781811015610a1b578281836040517ffb8f41b2000000000000000000000000000000000000000000000000000000008152600401610a1293929190611752565b60405180910390fd5b610a2a84848484036000610d76565b5b50505050565b600073ffffffffffffffffffffffffffffffffffffffff168373ffffffffffffffffffffffffffffffffffffffff1603610aa35760006040517f96c6fd1e000000000000000000000000000000000000000000000000000000008152600401610a9a9190611450565b60405180910390fd5b600073ffffffffffffffffffffffffffffffffffffffff168273ffffffffffffffffffffffffffffffffffffffff1603610b155760006040517fec442f05000000000000000000000000000000000000000000000000000000008152600401610b0c9190611450565b60405180910390fd5b610b20838383610f4d565b505050565b610b2d610982565b73ffffffffffffffffffffffffffffffffffffffff16610b4b610772565b73ffffffffffffffffffffffffffffffffffffffff1614610baa57610b6e610982565b6040517f118cdaa7000000000000000000000000000000000000000000000000000000008152600401610ba19190611450565b60405180910390fd5b565b600073ffffffffffffffffffffffffffffffffffffffff168273ffffffffffffffffffffffffffffffffffffffff1603610c1e5760006040517fec442f05000000000000000000000000000000000000000000000000000000008152600401610c159190611450565b60405180910390fd5b610c2a60008383610f4d565b5050565b600073ffffffffffffffffffffffffffffffffffffffff168273ffffffffffffffffffffffffffffffffffffffff1603610ca05760006040517f96c6fd1e000000000000000000000000000000000000000000000000000000008152600401610c979190611450565b60405180910390fd5b610cac82600083610f4d565b5050565b6000600560009054906101000a900473ffffffffffffffffffffffffffffffffffffffff16905081600560006101000a81548173ffffffffffffffffffffffffffffffffffffffff021916908373ffffffffffffffffffffffffffffffffffffffff1602179055508173ffffffffffffffffffffffffffffffffffffffff168173ffffffffffffffffffffffffffffffffffffffff167f8be0079c531659141344cd1fd0a4f28419497f9722a3daafe3b4186f6b6457e060405160405180910390a35050565b600073ffffffffffffffffffffffffffffffffffffffff168473ffffffffffffffffffffffffffffffffffffffff1603610de85760006040517fe602df05000000000000000000000000000000000000000000000000000000008152600401610ddf9190611450565b60405180910390fd5b600073ffffffffffffffffffffffffffffffffffffffff168373ffffffffffffffffffffffffffffffffffffffff1603610e5a5760006040517f94280d62000000000000000000000000000000000000000000000000000000008152600401610e519190611450565b60405180910390fd5b81600160008673ffffffffffffffffffffffffffffffffffffffff1673ffffffffffffffffffffffffffffffffffffffff16815260200190815260200160002060008573ffffffffffffffffffffffffffffffffffffffff1673ffffffffffffffffffffffffffffffffffffffff168152602001908152602001600020819055508015610f47578273ffffffffffffffffffffffffffffffffffffffff168473ffffffffffffffffffffffffffffffffffffffff167f8c5be1e5ebec7d5bd14f71427d1e84f3dd0314c0f7b2291e5b200ac8c7c3b92584604051610f3e9190611342565b60405180910390a35b50505050565b600073ffffffffffffffffffffffffffffffffffffffff168373ffffffffffffffffffffffffffffffffffffffff1603610f9f578060026000828254610f9391906115a6565b92505081905550611072565b60008060008573ffffffffffffffffffffffffffffffffffffffff1673ffffffffffffffffffffffffffffffffffffffff1681526020019081526020016000205490508181101561102b578381836040517fe450d38c00000000000000000000000000000000000000000000000000000000815260040161102293929190611752565b60405180910390fd5b8181036000808673ffffffffffffffffffffffffffffffffffffffff1673ffffffffffffffffffffffffffffffffffffffff16815260200190815260200160002081905550505b600073ffffffffffffffffffffffffffffffffffffffff168273ffffffffffffffffffffffffffffffffffffffff16036110bb5780600260008282540392505081905550611108565b806000808473ffffffffffffffffffffffffffffffffffffffff1673ffffffffffffffffffffffffffffffffffffffff168152602001908152602001600020600082825401925050819055505b8173ffffffffffffffffffffffffffffffffffffffff168373ffffffffffffffffffffffffffffffffffffffff167fddf252ad1be2c89b69c2b068fc378daa952ba7f163c4a11628f55a4df523b3ef836040516111659190611342565b60405180910390a3505050565b600081519050919050565b600082825260208201905092915050565b60005b838110156111ac578082015181840152602081019050611191565b60008484015250505050565b6000601f19601f8301169050919050565b60006111d482611172565b6111de818561117d565b93506111ee81856020860161118e565b6111f7816111b8565b840191505092915050565b6000602082019050818103600083015261121c81846111c9565b905092915050565b600080fd5b600073ffffffffffffffffffffffffffffffffffffffff82169050919050565b600061125482611229565b9050919050565b61126481611249565b811461126f57600080fd5b50565b6000813590506112818161125b565b92915050565b6000819050919050565b61129a81611287565b81146112a557600080fd5b50565b6000813590506112b781611291565b92915050565b600080604083850312156112d4576112d3611224565b5b60006112e285828601611272565b92505060206112f3858286016112a8565b9150509250929050565b60008115159050919050565b611312816112fd565b82525050565b600060208201905061132d6000830184611309565b92915050565b61133c81611287565b82525050565b60006020820190506113576000830184611333565b92915050565b60008060006060848603121561137657611375611224565b5b600061138486828701611272565b935050602061139586828701611272565b92505060406113a6868287016112a8565b9150509250925092565b600060ff82169050919050565b6113c6816113b0565b82525050565b60006020820190506113e160008301846113bd565b92915050565b6000602082840312156113fd576113fc611224565b5b600061140b848285016112a8565b91505092915050565b60006020828403121561142a57611429611224565b5b600061143884828501611272565b91505092915050565b61144a81611249565b82525050565b60006020820190506114656000830184611441565b92915050565b6000806040838503121561148257611481611224565b5b600061149085828601611272565b92505060206114a185828601611272565b9150509250929050565b7f4e487b7100000000000000000000000000000000000000000000000000000000600052602260045260246000fd5b600060028204905060018216806114f257607f821691505b602082108103611505576115046114ab565b5b50919050565b7f4d696e74696e672064697361626c656400000000000000000000000000000000600082015250565b600061154160108361117d565b915061154c8261150b565b602082019050919050565b6000602082019050818103600083015261157081611534565b9050919050565b7f4e487b7100000000000000000000000000000000000000000000000000000000600052601160045260246000fd5b60006115b182611287565b91506115bc83611287565b92508282019050808211156115d4576115d3611577565b5b92915050565b7f4d617820737570706c7920657863656564656400000000000000000000000000600082015250565b600061161060138361117d565b915061161b826115da565b602082019050919050565b6000602082019050818103600083015261163f81611603565b9050919050565b7f4275726e696e672064697361626c656400000000000000000000000000000000600082015250565b600061167c60108361117d565b915061168782611646565b602082019050919050565b600060208201905081810360008301526116ab8161166f565b9050919050565b7f45524332303a20696e73756666696369656e7420616c6c6f77616e6365000000600082015250565b60006116e8601d8361117d565b91506116f3826116b2565b602082019050919050565b60006020820190508181036000830152611717816116db565b9050919050565b600061172982611287565b915061173483611287565b925082820390508181111561174c5761174b611577565b5b92915050565b60006060820190506117676000830186611441565b6117746020830185611333565b6117816040830184611333565b94935050505056fea26469706673582212204c6ee487feeddd2d908c98335b345c7b0305ab16397e5c0f880d0276aa17838f64736f6c63430008140033",
  "linkReferences": {},
  "deployedLinkReferences": {}
}